{"contracts/LocalFirstWalletRegistry.sol":{"LocalFirstWalletRegistry":{"abi":[{"anonymous":false,"inputs":[{"indexed":true,"internalType":"bytes32","name":"userHash","type":"bytes32"},{"indexed":true,"internalType":"bytes32","name":"movementId","type":"bytes32"},{"indexed":false,"internalType":"bytes32","name":"previousWalletStateId","type":"bytes32"},{"indexed":false,"internalType":"bytes32","name":"newWalletStateId","type":"bytes32"},{"indexed":false,"internalType":"bytes32","name":"payloadHash","type":"bytes32"},{"indexed":false,"internalType":"bytes32","name":"signatureHash","type":"bytes32"},{"indexed":false,"internalType":"uint256","name":"timestamp","type":"uint256"}],"name":"LocalWalletMovementRegistered","type":"event"},{"inputs":[{"internalType":"bytes32","name":"","type":"bytes32"}],"name":"latestWalletState","outputs":[{"internalType":"bytes32","name":"","type":"bytes32"}],"stateMutability":"view","type":"function"},{"inputs":[{"internalType":"bytes32","name":"","type":"bytes32"}],"name":"movementExists","outputs":[{"internalType":"bool","name":"","type":"bool"}],"stateMutability":"view","type":"function"},{"inputs":[{"internalType":"bytes32","name":"userHash","type":"bytes32"},{"internalType":"bytes32","name":"movementId","type":"bytes32"},{"internalType":"bytes32","name":"previousWalletStateId","type":"bytes32"},{"internalType":"bytes32","name":"newWalletStateId","type":"bytes32"},{"internalType":"bytes32","name":"payloadHash","type":"bytes32"},{"internalType":"bytes32","name":"signatureHash","type":"bytes32"}],"name":"registerMovement","outputs":[],"stateMutability":"nonpayable","type":"function"}],"evm":{"bytecode":{"linkReferences":{},"object":"608060405234801561001057600080fd5b5061052b806100206000396000f3fe608060405234801561001057600080fd5b50600436106100415760003560e01c8063170106661461004657806383ce7e9014610062578063b90e213214610092575b600080fd5b610060600480360381019061005b9190610286565b6100c2565b005b61007c60048036038101906100779190610313565b610213565b604051610089919061035b565b60405180910390f35b6100ac60048036038101906100a79190610313565b610233565b6040516100b99190610385565b60405180910390f35b6001600086815260200190815260200160002060009054906101000a900460ff1615610123576040517f08c379a000000000000000000000000000000000000000000000000000000000815260040161011a906103fd565b60405180910390fd5b60008060008881526020019081526020016000205490506000801b811461018757848114610186576040517f08c379a000000000000000000000000000000000000000000000000000000000815260040161017d90610469565b60405180910390fd5b5b600180600088815260200190815260200160002060006101000a81548160ff021916908315150217905550836000808981526020019081526020016000208190555085877f21fd527b7668ae7038425aec591cc8c5859e9ebbf85c3e5f823ea76a3d232cf487878787426040516102029594939291906104a2565b60405180910390a350505050505050565b60016020528060005260406000206000915054906101000a900460ff1681565b60006020528060005260406000206000915090505481565b600080fd5b6000819050919050565b61026381610250565b811461026e57600080fd5b50565b6000813590506102808161025a565b92915050565b60008060008060008060c087890312156102a3576102a261024b565b5b60006102b189828a01610271565b96505060206102c289828a01610271565b95505060406102d389828a01610271565b94505060606102e489828a01610271565b93505060806102f589828a01610271565b92505060a061030689828a01610271565b9150509295509295509295565b6000602082840312156103295761032861024b565b5b600061033784828501610271565b91505092915050565b60008115159050919050565b61035581610340565b82525050565b6000602082019050610370600083018461034c565b92915050565b61037f81610250565b82525050565b600060208201905061039a6000830184610376565b92915050565b600082825260208201905092915050565b7f6d6f76656d656e7420616c726561647920726567697374657265640000000000600082015250565b60006103e7601b836103a0565b91506103f2826103b1565b602082019050919050565b60006020820190508181036000830152610416816103da565b9050919050565b7f696e76616c69642070726576696f75732077616c6c6574207374617465000000600082015250565b6000610453601d836103a0565b915061045e8261041d565b602082019050919050565b6000602082019050818103600083015261048281610446565b9050919050565b6000819050919050565b61049c81610489565b82525050565b600060a0820190506104b76000830188610376565b6104c46020830187610376565b6104d16040830186610376565b6104de6060830185610376565b6104eb6080830184610493565b969550505050505056fea2646970667358221220f6d9f948f32b25de5adec2823b2cb01da6df6619315c93ba0425d04d953bc8df64736f6c63430008180033","opcodes":"PUSH1 0x80 PUSH1 0x40 MSTORE CALLVALUE DUP1 ISZERO PUSH2 0x10 JUMPI PUSH1 0x0 DUP1 REVERT JUMPDEST POP PUSH2 0x52B DUP1 PUSH2 0x20 PUSH1 0x0 CODECOPY PUSH1 0x0 RETURN INVALID PUSH1 0x80 PUSH1 0x40 MSTORE CALLVALUE DUP1 ISZERO PUSH2 0x10 JUMPI PUSH1 0x0 DUP1 REVERT JUMPDEST POP PUSH1 0x4 CALLDATASIZE LT PUSH2 0x41 JUMPI PUSH1 0x0 CALLDATALOAD PUSH1 0xE0 SHR DUP1 PUSH4 0x17010666 EQ PUSH2 0x46 JUMPI DUP1 PUSH4 0x83CE7E90 EQ PUSH2 0x62 JUMPI DUP1 PUSH4 0xB90E2132 EQ PUSH2 0x92 JUMPI JUMPDEST PUSH1 0x0 DUP1 REVERT JUMPDEST PUSH2 0x60 PUSH1 0x4 DUP1 CALLDATASIZE SUB DUP2 ADD SWAP1 PUSH2 0x5B SWAP2 SWAP1 PUSH2 0x286 JUMP JUMPDEST PUSH2 0xC2 JUMP JUMPDEST STOP JUMPDEST PUSH2 0x7C PUSH1 0x4 DUP1 CALLDATASIZE SUB DUP2 ADD SWAP1 PUSH2 0x77 SWAP2 SWAP1 PUSH2 0x313 JUMP JUMPDEST PUSH2 0x213 JUMP JUMPDEST PUSH1 0x40 MLOAD PUSH2 0x89 SWAP2 SWAP1 PUSH2 0x35B JUMP JUMPDEST PUSH1 0x40 MLOAD DUP1 SWAP2 SUB SWAP1 RETURN JUMPDEST PUSH2 0xAC PUSH1 0x4 DUP1 CALLDATASIZE SUB DUP2 ADD SWAP1 PUSH2 0xA7 SWAP2 SWAP1 PUSH2 0x313 JUMP JUMPDEST PUSH2 0x233 JUMP JUMPDEST PUSH1 0x40 MLOAD PUSH2 0xB9 SWAP2 SWAP1 PUSH2 0x385 JUMP JUMPDEST PUSH1 0x40 MLOAD DUP1 SWAP2 SUB SWAP1 RETURN JUMPDEST PUSH1 0x1 PUSH1 0x0 DUP7 DUP2 MSTORE PUSH1 0x20 ADD SWAP1 DUP2 MSTORE PUSH1 0x20 ADD PUSH1 0x0 KECCAK256 PUSH1 0x0 SWAP1 SLOAD SWAP1 PUSH2 0x100 EXP SWAP1 DIV PUSH1 0xFF AND ISZERO PUSH2 0x123 JUMPI PUSH1 0x40 MLOAD PUSH32 0x8C379A000000000000000000000000000000000000000000000000000000000 DUP2 MSTORE PUSH1 0x4 ADD PUSH2 0x11A SWAP1 PUSH2 0x3FD JUMP JUMPDEST PUSH1 0x40 MLOAD DUP1 SWAP2 SUB SWAP1 REVERT JUMPDEST PUSH1 0x0 DUP1 PUSH1 0x0 DUP9 DUP2 MSTORE PUSH1 0x20 ADD SWAP1 DUP2 MSTORE PUSH1 0x20 ADD PUSH1 0x0 KECCAK256 SLOAD SWAP1 POP PUSH1 0x0 DUP1 SHL DUP2 EQ PUSH2 0x187 JUMPI DUP5 DUP2 EQ PUSH2 0x186 JUMPI PUSH1 0x40 MLOAD PUSH32 0x8C379A000000000000000000000000000000000000000000000000000000000 DUP2 MSTORE PUSH1 0x4 ADD PUSH2 0x17D SWAP1 PUSH2 0x469 JUMP JUMPDEST PUSH1 0x40 MLOAD DUP1 SWAP2 SUB SWAP1 REVERT JUMPDEST JUMPDEST PUSH1 0x1 DUP1 PUSH1 0x0 DUP9 DUP2 MSTORE PUSH1 0x20 ADD SWAP1 DUP2 MSTORE PUSH1 0x20 ADD PUSH1 0x0 KECCAK256 PUSH1 0x0 PUSH2 0x100 EXP DUP2 SLOAD DUP2 PUSH1 0xFF MUL NOT AND SWAP1 DUP4 ISZERO ISZERO MUL OR SWAP1 SSTORE POP DUP4 PUSH1 0x0 DUP1 DUP10 DUP2 MSTORE PUSH1 0x20 ADD SWAP1 DUP2 MSTORE PUSH1 0x20 ADD PUSH1 0x0 KECCAK256 DUP2 SWAP1 SSTORE POP DUP6 DUP8 PUSH32 0x21FD527B7668AE7038425AEC591CC8C5859E9EBBF85C3E5F823EA76A3D232CF4 DUP8 DUP8 DUP8 DUP8 TIMESTAMP PUSH1 0x40 MLOAD PUSH2 0x202 SWAP6 SWAP5 SWAP4 SWAP3 SWAP2 SWAP1 PUSH2 0x4A2 JUMP JUMPDEST PUSH1 0x40 MLOAD DUP1 SWAP2 SUB SWAP1 LOG3 POP POP POP POP POP POP POP JUMP JUMPDEST PUSH1 0x1 PUSH1 0x20 MSTORE DUP1 PUSH1 0x0 MSTORE PUSH1 0x40 PUSH1 0x0 KECCAK256 PUSH1 0x0 SWAP2 POP SLOAD SWAP1 PUSH2 0x100 EXP SWAP1 DIV PUSH1 0xFF AND DUP2 JUMP JUMPDEST PUSH1 0x0 PUSH1 0x20 MSTORE DUP1 PUSH1 0x0 MSTORE PUSH1 0x40 PUSH1 0x0 KECCAK256 PUSH1 0x0 SWAP2 POP SWAP1 POP SLOAD DUP2 JUMP JUMPDEST PUSH1 0x0 DUP1 REVERT JUMPDEST PUSH1 0x0 DUP2 SWAP1 POP SWAP2 SWAP1 POP JUMP JUMPDEST PUSH2 0x263 DUP2 PUSH2 0x250 JUMP JUMPDEST DUP2 EQ PUSH2 0x26E JUMPI PUSH1 0x0 DUP1 REVERT JUMPDEST POP JUMP JUMPDEST PUSH1 0x0 DUP2 CALLDATALOAD SWAP1 POP PUSH2 0x280 DUP2 PUSH2 0x25A JUMP JUMPDEST SWAP3 SWAP2 POP POP JUMP JUMPDEST PUSH1 0x0 DUP1 PUSH1 0x0 DUP1 PUSH1 0x0 DUP1 PUSH1 0xC0 DUP8 DUP10 SUB SLT ISZERO PUSH2 0x2A3 JUMPI PUSH2 0x2A2 PUSH2 0x24B JUMP JUMPDEST JUMPDEST PUSH1 0x0 PUSH2 0x2B1 DUP10 DUP3 DUP11 ADD PUSH2 0x271 JUMP JUMPDEST SWAP7 POP POP PUSH1 0x20 PUSH2 0x2C2 DUP10 DUP3 DUP11 ADD PUSH2 0x271 JUMP JUMPDEST SWAP6 POP POP PUSH1 0x40 PUSH2 0x2D3 DUP10 DUP3 DUP11 ADD PUSH2 0x271 JUMP JUMPDEST SWAP5 POP POP PUSH1 0x60 PUSH2 0x2E4 DUP10 DUP3 DUP11 ADD PUSH2 0x271 JUMP JUMPDEST SWAP4 POP POP PUSH1 0x80 PUSH2 0x2F5 DUP10 DUP3 DUP11 ADD PUSH2 0x271 JUMP JUMPDEST SWAP3 POP POP PUSH1 0xA0 PUSH2 0x306 DUP10 DUP3 DUP11 ADD PUSH2 0x271 JUMP JUMPDEST SWAP2 POP POP SWAP3 SWAP6 POP SWAP3 SWAP6 POP SWAP3 SWAP6 JUMP JUMPDEST PUSH1 0x0 PUSH1 0x20 DUP3 DUP5 SUB SLT ISZERO PUSH2 0x329 JUMPI PUSH2 0x328 PUSH2 0x24B JUMP JUMPDEST JUMPDEST PUSH1 0x0 PUSH2 0x337 DUP5 DUP3 DUP6 ADD PUSH2 0x271 JUMP JUMPDEST SWAP2 POP POP SWAP3 SWAP2 POP POP JUMP JUMPDEST PUSH1 0x0 DUP2 ISZERO ISZERO SWAP1 POP SWAP2 SWAP1 POP JUMP JUMPDEST PUSH2 0x355 DUP2 PUSH2 0x340 JUMP JUMPDEST DUP3 MSTORE POP POP JUMP JUMPDEST PUSH1 0x0 PUSH1 0x20 DUP3 ADD SWAP1 POP PUSH2 0x370 PUSH1 0x0 DUP4 ADD DUP5 PUSH2 0x34C JUMP JUMPDEST SWAP3 SWAP2 POP POP JUMP JUMPDEST PUSH2 0x37F DUP2 PUSH2 0x250 JUMP JUMPDEST DUP3 MSTORE POP POP JUMP JUMPDEST PUSH1 0x0 PUSH1 0x20 DUP3 ADD SWAP1 POP PUSH2 0x39A PUSH1 0x0 DUP4 ADD DUP5 PUSH2 0x376 JUMP JUMPDEST SWAP3 SWAP2 POP POP JUMP JUMPDEST PUSH1 0x0 DUP3 DUP3 MSTORE PUSH1 0x20 DUP3 ADD SWAP1 POP SWAP3 SWAP2 POP POP JUMP JUMPDEST PUSH32 0x6D6F76656D656E7420616C726561647920726567697374657265640000000000 PUSH1 0x0 DUP3 ADD MSTORE POP JUMP JUMPDEST PUSH1 0x0 PUSH2 0x3E7 PUSH1 0x1B DUP4 PUSH2 0x3A0 JUMP JUMPDEST SWAP2 POP PUSH2 0x3F2 DUP3 PUSH2 0x3B1 JUMP JUMPDEST PUSH1 0x20 DUP3 ADD SWAP1 POP SWAP2 SWAP1 POP JUMP JUMPDEST PUSH1 0x0 PUSH1 0x20 DUP3 ADD SWAP1 POP DUP2 DUP2 SUB PUSH1 0x0 DUP4 ADD MSTORE PUSH2 0x416 DUP2 PUSH2 0x3DA JUMP JUMPDEST SWAP1 POP SWAP2 SWAP1 POP JUMP JUMPDEST PUSH32 0x696E76616C69642070726576696F75732077616C6C6574207374617465000000 PUSH1 0x0 DUP3 ADD MSTORE POP JUMP JUMPDEST PUSH1 0x0 PUSH2 0x453 PUSH1 0x1D DUP4 PUSH2 0x3A0 JUMP JUMPDEST SWAP2 POP PUSH2 0x45E DUP3 PUSH2 0x41D JUMP JUMPDEST PUSH1 0x20 DUP3 ADD SWAP1 POP SWAP2 SWAP1 POP JUMP JUMPDEST PUSH1 0x0 PUSH1 0x20 DUP3 ADD SWAP1 POP DUP2 DUP2 SUB PUSH1 0x0 DUP4 ADD MSTORE PUSH2 0x482 DUP2 PUSH2 0x446 JUMP JUMPDEST SWAP1 POP SWAP2 SWAP1 POP JUMP JUMPDEST PUSH1 0x0 DUP2 SWAP1 POP SWAP2 SWAP1 POP JUMP JUMPDEST PUSH2 0x49C DUP2 PUSH2 0x489 JUMP JUMPDEST DUP3 MSTORE POP POP JUMP JUMPDEST PUSH1 0x0 PUSH1 0xA0 DUP3 ADD SWAP1 POP PUSH2 0x4B7 PUSH1 0x0 DUP4 ADD DUP9 PUSH2 0x376 JUMP JUMPDEST PUSH2 0x4C4 PUSH1 0x20 DUP4 ADD DUP8 PUSH2 0x376 JUMP JUMPDEST PUSH2 0x4D1 PUSH1 0x40 DUP4 ADD DUP7 PUSH2 0x376 JUMP JUMPDEST PUSH2 0x4DE PUSH1 0x60 DUP4 ADD DUP6 PUSH2 0x376 JUMP JUMPDEST PUSH2 0x4EB PUSH1 0x80 DUP4 ADD DUP5 PUSH2 0x493 JUMP JUMPDEST SWAP7 SWAP6 POP POP POP POP POP POP JUMP INVALID LOG2 PUSH5 0x6970667358 0x22 SLT KECCAK256 0xF6 0xD9 0xF9 BASEFEE RETURN 0x2B 0x25 0xDE GAS 0xDE 0xC2 DUP3 EXTCODESIZE 0x2C 0xB0 SAR 0xA6 0xDF PUSH7 0x19315C93BA0425 0xD0 0x4D SWAP6 EXTCODESIZE 0xC8 0xDF PUSH5 0x736F6C6343 STOP ADDMOD XOR STOP CALLER "},"methodIdentifiers":{"latestWalletState(bytes32)":"b90e2132","movementExists(bytes32)":"83ce7e90","registerMovement(bytes32,bytes32,bytes32,bytes32,bytes32,bytes32)":"17010666"}}}}}