{"contracts/HipiPlayRaces.sol":{"HipiPlayRaces":{"abi":[{"inputs":[],"stateMutability":"nonpayable","type":"constructor"},{"anonymous":false,"inputs":[{"indexed":true,"internalType":"uint256","name":"raceId","type":"uint256"},{"indexed":true,"internalType":"address","name":"player","type":"address"},{"indexed":false,"internalType":"uint8","name":"horse","type":"uint8"},{"indexed":false,"internalType":"uint256","name":"amount","type":"uint256"}],"name":"BetPlaced","type":"event"},{"anonymous":false,"inputs":[{"indexed":true,"internalType":"uint256","name":"raceId","type":"uint256"},{"indexed":true,"internalType":"address","name":"player","type":"address"},{"indexed":false,"internalType":"uint256","name":"amount","type":"uint256"}],"name":"PrizePaid","type":"event"},{"anonymous":false,"inputs":[{"indexed":true,"internalType":"uint256","name":"raceId","type":"uint256"}],"name":"RaceClosed","type":"event"},{"anonymous":false,"inputs":[{"indexed":true,"internalType":"uint256","name":"raceId","type":"uint256"},{"indexed":false,"internalType":"bytes32","name":"serverSeedHash","type":"bytes32"}],"name":"RaceCreated","type":"event"},{"anonymous":false,"inputs":[{"indexed":true,"internalType":"uint256","name":"raceId","type":"uint256"},{"indexed":false,"internalType":"uint8","name":"winningHorse","type":"uint8"},{"indexed":false,"internalType":"string","name":"revealedSeed","type":"string"}],"name":"RaceFinished","type":"event"},{"inputs":[],"name":"HORSE_COUNT","outputs":[{"internalType":"uint8","name":"","type":"uint8"}],"stateMutability":"view","type":"function"},{"inputs":[{"internalType":"uint256","name":"raceId","type":"uint256"},{"internalType":"uint256","name":"betIndex","type":"uint256"}],"name":"claimPrize","outputs":[],"stateMutability":"nonpayable","type":"function"},{"inputs":[{"internalType":"uint256","name":"raceId","type":"uint256"}],"name":"closeRace","outputs":[],"stateMutability":"nonpayable","type":"function"},{"inputs":[{"internalType":"bytes32","name":"serverSeedHash","type":"bytes32"}],"name":"createRace","outputs":[],"stateMutability":"nonpayable","type":"function"},{"inputs":[{"internalType":"uint256","name":"raceId","type":"uint256"}],"name":"getBetsCount","outputs":[{"internalType":"uint256","name":"","type":"uint256"}],"stateMutability":"view","type":"function"},{"inputs":[{"internalType":"uint256","name":"raceId","type":"uint256"},{"internalType":"uint8","name":"horse","type":"uint8"}],"name":"getHorsePool","outputs":[{"internalType":"uint256","name":"","type":"uint256"}],"stateMutability":"view","type":"function"},{"inputs":[{"internalType":"uint256","name":"","type":"uint256"},{"internalType":"uint8","name":"","type":"uint8"}],"name":"horsePools","outputs":[{"internalType":"uint256","name":"","type":"uint256"}],"stateMutability":"view","type":"function"},{"inputs":[],"name":"owner","outputs":[{"internalType":"address","name":"","type":"address"}],"stateMutability":"view","type":"function"},{"inputs":[{"internalType":"uint256","name":"raceId","type":"uint256"},{"internalType":"uint8","name":"horse","type":"uint8"}],"name":"placeBet","outputs":[],"stateMutability":"payable","type":"function"},{"inputs":[{"internalType":"uint256","name":"","type":"uint256"},{"internalType":"uint256","name":"","type":"uint256"}],"name":"raceBets","outputs":[{"internalType":"address","name":"player","type":"address"},{"internalType":"uint8","name":"horse","type":"uint8"},{"internalType":"uint256","name":"amount","type":"uint256"},{"internalType":"bool","name":"paid","type":"bool"}],"stateMutability":"view","type":"function"},{"inputs":[],"name":"raceCounter","outputs":[{"internalType":"uint256","name":"","type":"uint256"}],"stateMutability":"view","type":"function"},{"inputs":[{"internalType":"uint256","name":"","type":"uint256"}],"name":"races","outputs":[{"internalType":"uint256","name":"id","type":"uint256"},{"internalType":"bytes32","name":"serverSeedHash","type":"bytes32"},{"internalType":"string","name":"revealedSeed","type":"string"},{"internalType":"uint8","name":"winningHorse","type":"uint8"},{"internalType":"uint256","name":"totalPool","type":"uint256"},{"internalType":"uint256","name":"totalWinningPool","type":"uint256"},{"internalType":"enum HipiPlayRaces.RaceStatus","name":"status","type":"uint8"}],"stateMutability":"view","type":"function"},{"inputs":[{"internalType":"uint256","name":"raceId","type":"uint256"},{"internalType":"string","name":"serverSeed","type":"string"}],"name":"revealResult","outputs":[],"stateMutability":"nonpayable","type":"function"}],"evm":{"bytecode":{"linkReferences":{},"object":"608060405234801561001057600080fd5b50336000806101000a81548173ffffffffffffffffffffffffffffffffffffffff021916908373ffffffffffffffffffffffffffffffffffffffff1602179055506123ea806100606000396000f3fe6080604052600436106100c25760003560e01c8063710ada351161007f5780638da5cb5b116100595780638da5cb5b1461028657806396b73a24146102b1578063a1cb09c5146102da578063b228dbd114610317576100c2565b8063710ada35146101ef5780637b1541401461021a5780637bbc469e14610243576100c2565b806303edf914146100c757806305c4cb45146100e3578063255cb1751461012057806327f43c2c1461015d578063317b63461461019d5780635154a115146101c6575b600080fd5b6100e160048036038101906100dc9190611273565b610342565b005b3480156100ef57600080fd5b5061010a600480360381019061010591906112b3565b61062d565b60405161011791906112ef565b60405180910390f35b34801561012c57600080fd5b5061014760048036038101906101429190611273565b61064d565b60405161015491906112ef565b60405180910390f35b34801561016957600080fd5b50610184600480360381019061017f919061130a565b610682565b60405161019494939291906113b5565b60405180910390f35b3480156101a957600080fd5b506101c460048036038101906101bf919061145f565b610709565b005b3480156101d257600080fd5b506101ed60048036038101906101e891906114f5565b6109cc565b005b3480156101fb57600080fd5b50610204610bb3565b60405161021191906112ef565b60405180910390f35b34801561022657600080fd5b50610241600480360381019061023c919061130a565b610bb9565b005b34801561024f57600080fd5b5061026a600480360381019061026591906112b3565b610f4d565b60405161027d9796959493929190611638565b60405180910390f35b34801561029257600080fd5b5061029b611031565b6040516102a891906116ae565b60405180910390f35b3480156102bd57600080fd5b506102d860048036038101906102d391906112b3565b611055565b005b3480156102e657600080fd5b5061030160048036038101906102fc9190611273565b6111d0565b60405161030e91906112ef565b60405180910390f35b34801561032357600080fd5b5061032c6111f5565b60405161033991906116c9565b60405180910390f35b60006002600084815260200190815260200160002090506000600381111561036d5761036c6115c1565b5b8160060160009054906101000a900460ff166003811115610391576103906115c1565b5b146103d1576040517f08c379a00000000000000000000000000000000000000000000000000000000081526004016103c890611730565b60405180910390fd5b60018260ff16101580156103ec5750600660ff168260ff1611155b61042b576040517f08c379a00000000000000000000000000000000000000000000000000000000081526004016104229061179c565b60405180910390fd5b6000341161046e576040517f08c379a00000000000000000000000000000000000000000000000000000000081526004016104659061182e565b60405180910390fd5b6003600084815260200190815260200160002060405180608001604052803373ffffffffffffffffffffffffffffffffffffffff1681526020018460ff16815260200134815260200160001515815250908060018154018082558091505060019003906000526020600020906003020160009091909190915060008201518160000160006101000a81548173ffffffffffffffffffffffffffffffffffffffff021916908373ffffffffffffffffffffffffffffffffffffffff16021790555060208201518160000160146101000a81548160ff021916908360ff1602179055506040820151816001015560608201518160020160006101000a81548160ff02191690831515021790555050503481600401600082825461058f919061187d565b92505081905550346004600085815260200190815260200160002060008460ff1660ff16815260200190815260200160002060008282546105d0919061187d565b925050819055503373ffffffffffffffffffffffffffffffffffffffff16837f4f1eed5e863a822b0f9eb960dfdab2cc5a99beec4b191f2a7a9c7e28e5a1552484346040516106209291906118b1565b60405180910390a3505050565b600060036000838152602001908152602001600020805490509050919050565b60006004600084815260200190815260200160002060008360ff1660ff16815260200190815260200160002054905092915050565b6003602052816000526040600020818154811061069e57600080fd5b9060005260206000209060030201600091509150508060000160009054906101000a900473ffffffffffffffffffffffffffffffffffffffff16908060000160149054906101000a900460ff16908060010154908060020160009054906101000a900460ff16905084565b60008054906101000a900473ffffffffffffffffffffffffffffffffffffffff1673ffffffffffffffffffffffffffffffffffffffff163373ffffffffffffffffffffffffffffffffffffffff1614610797576040517f08c379a000000000000000000000000000000000000000000000000000000000815260040161078e90611926565b60405180910390fd5b6000600260008581526020019081526020016000209050600160038111156107c2576107c16115c1565b5b8160060160009054906101000a900460ff1660038111156107e6576107e56115c1565b5b14610826576040517f08c379a000000000000000000000000000000000000000000000000000000000815260040161081d90611992565b60405180910390fd5b8060010154838360405160200161083e9291906119f1565b6040516020818303038152906040528051906020012014610894576040517f08c379a000000000000000000000000000000000000000000000000000000000815260040161088b90611a56565b60405180910390fd5b600083836001436108a59190611a76565b4087306040516020016108bc959493929190611b34565b6040516020818303038152906040528051906020012060001c905060006001600660ff16836108eb9190611baf565b6108f5919061187d565b9050848484600201918261090a929190611e26565b50808360030160006101000a81548160ff021916908360ff1602179055506004600087815260200190815260200160002060008260ff1660ff16815260200190815260200160002054836005018190555060028360060160006101000a81548160ff02191690836003811115610983576109826115c1565b5b0217905550857f8b7cadd1e328fea586ad5ad6e0889ca11d45a91747055764d3b64fc104b0565e8287876040516109bc93929190611f23565b60405180910390a2505050505050565b60008054906101000a900473ffffffffffffffffffffffffffffffffffffffff1673ffffffffffffffffffffffffffffffffffffffff163373ffffffffffffffffffffffffffffffffffffffff1614610a5a576040517f08c379a0000000000000000000000000000000000000000000000000000000008152600401610a5190611926565b60405180910390fd5b60016000815480929190610a6d90611f55565b91905055506040518060e001604052806001548152602001828152602001604051806020016040528060008152508152602001600060ff168152602001600081526020016000815260200160006003811115610acc57610acb6115c1565b5b81525060026000600154815260200190815260200160002060008201518160000155602082015181600101556040820151816002019081610b0d9190611f9d565b5060608201518160030160006101000a81548160ff021916908360ff1602179055506080820151816004015560a0820151816005015560c08201518160060160006101000a81548160ff02191690836003811115610b6e57610b6d6115c1565b5b02179055509050506001547f215b332c4ee316db2a99709bda321c424fb0661b3c9c4c108b1cb2199f86274982604051610ba8919061206f565b60405180910390a250565b60015481565b600060026000848152602001908152602001600020905060026003811115610be457610be36115c1565b5b8160060160009054906101000a900460ff166003811115610c0857610c076115c1565b5b14610c48576040517f08c379a0000000000000000000000000000000000000000000000000000000008152600401610c3f906120d6565b60405180910390fd5b60036000848152602001908152602001600020805490508210610ca0576040517f08c379a0000000000000000000000000000000000000000000000000000000008152600401610c9790612142565b60405180910390fd5b6000600360008581526020019081526020016000208381548110610cc757610cc6612162565b5b906000526020600020906003020190503373ffffffffffffffffffffffffffffffffffffffff168160000160009054906101000a900473ffffffffffffffffffffffffffffffffffffffff1673ffffffffffffffffffffffffffffffffffffffff1614610d69576040517f08c379a0000000000000000000000000000000000000000000000000000000008152600401610d60906121dd565b60405180910390fd5b8060020160009054906101000a900460ff1615610dbb576040517f08c379a0000000000000000000000000000000000000000000000000000000008152600401610db290612249565b60405180910390fd5b8160030160009054906101000a900460ff1660ff168160000160149054906101000a900460ff1660ff1614610e25576040517f08c379a0000000000000000000000000000000000000000000000000000000008152600401610e1c906122b5565b60405180910390fd5b6000826005015411610e6c576040517f08c379a0000000000000000000000000000000000000000000000000000000008152600401610e6390612321565b60405180910390fd5b6000826005015483600401548360010154610e879190612341565b610e919190612383565b905060018260020160006101000a81548160ff0219169083151502179055503373ffffffffffffffffffffffffffffffffffffffff166108fc829081150290604051600060405180830381858888f19350505050158015610ef6573d6000803e3d6000fd5b503373ffffffffffffffffffffffffffffffffffffffff16857ffcf35a3fc019052976cdcd0cd1a67217972ee331e0b9bf6a37f2fddfa276a01483604051610f3e91906112ef565b60405180910390a35050505050565b6002602052806000526040600020600091509050806000015490806001015490806002018054610f7c90611c49565b80601f0160208091040260200160405190810160405280929190818152602001828054610fa890611c49565b8015610ff55780601f10610fca57610100808354040283529160200191610ff5565b820191906000526020600020905b815481529060010190602001808311610fd857829003601f168201915b5050505050908060030160009054906101000a900460ff16908060040154908060050154908060060160009054906101000a900460ff16905087565b60008054906101000a900473ffffffffffffffffffffffffffffffffffffffff1681565b60008054906101000a900473ffffffffffffffffffffffffffffffffffffffff1673ffffffffffffffffffffffffffffffffffffffff163373ffffffffffffffffffffffffffffffffffffffff16146110e3576040517f08c379a00000000000000000000000000000000000000000000000000000000081526004016110da90611926565b60405180910390fd5b60006002600083815260200190815260200160002090506000600381111561110e5761110d6115c1565b5b8160060160009054906101000a900460ff166003811115611132576111316115c1565b5b14611172576040517f08c379a000000000000000000000000000000000000000000000000000000000815260040161116990611730565b60405180910390fd5b60018160060160006101000a81548160ff0219169083600381111561119a576111996115c1565b5b0217905550817f18817071bb121c258d6cbd7bb3729e2f3847ca88a7f7dbf5995fd78c5b5e618460405160405180910390a25050565b6004602052816000526040600020602052806000526040600020600091509150505481565b600681565b600080fd5b600080fd5b6000819050919050565b61121781611204565b811461122257600080fd5b50565b6000813590506112348161120e565b92915050565b600060ff82169050919050565b6112508161123a565b811461125b57600080fd5b50565b60008135905061126d81611247565b92915050565b6000806040838503121561128a576112896111fa565b5b600061129885828601611225565b92505060206112a98582860161125e565b9150509250929050565b6000602082840312156112c9576112c86111fa565b5b60006112d784828501611225565b91505092915050565b6112e981611204565b82525050565b600060208201905061130460008301846112e0565b92915050565b60008060408385031215611321576113206111fa565b5b600061132f85828601611225565b925050602061134085828601611225565b9150509250929050565b600073ffffffffffffffffffffffffffffffffffffffff82169050919050565b60006113758261134a565b9050919050565b6113858161136a565b82525050565b6113948161123a565b82525050565b60008115159050919050565b6113af8161139a565b82525050565b60006080820190506113ca600083018761137c565b6113d7602083018661138b565b6113e460408301856112e0565b6113f160608301846113a6565b95945050505050565b600080fd5b600080fd5b600080fd5b60008083601f84011261141f5761141e6113fa565b5b8235905067ffffffffffffffff81111561143c5761143b6113ff565b5b60208301915083600182028301111561145857611457611404565b5b9250929050565b600080600060408486031215611478576114776111fa565b5b600061148686828701611225565b935050602084013567ffffffffffffffff8111156114a7576114a66111ff565b5b6114b386828701611409565b92509250509250925092565b6000819050919050565b6114d2816114bf565b81146114dd57600080fd5b50565b6000813590506114ef816114c9565b92915050565b60006020828403121561150b5761150a6111fa565b5b6000611519848285016114e0565b91505092915050565b61152b816114bf565b82525050565b600081519050919050565b600082825260208201905092915050565b60005b8381101561156b578082015181840152602081019050611550565b60008484015250505050565b6000601f19601f8301169050919050565b600061159382611531565b61159d818561153c565b93506115ad81856020860161154d565b6115b681611577565b840191505092915050565b7f4e487b7100000000000000000000000000000000000000000000000000000000600052602160045260246000fd5b60048110611601576116006115c1565b5b50565b6000819050611612826115f0565b919050565b600061162282611604565b9050919050565b61163281611617565b82525050565b600060e08201905061164d600083018a6112e0565b61165a6020830189611522565b818103604083015261166c8188611588565b905061167b606083018761138b565b61168860808301866112e0565b61169560a08301856112e0565b6116a260c0830184611629565b98975050505050505050565b60006020820190506116c3600083018461137c565b92915050565b60006020820190506116de600083018461138b565b92915050565b7f52616365206e6f74206f70656e00000000000000000000000000000000000000600082015250565b600061171a600d8361153c565b9150611725826116e4565b602082019050919050565b600060208201905081810360008301526117498161170d565b9050919050565b7f496e76616c696420686f72736500000000000000000000000000000000000000600082015250565b6000611786600d8361153c565b915061179182611750565b602082019050919050565b600060208201905081810360008301526117b581611779565b9050919050565b7f42657420616d6f756e74206d7573742062652067726561746572207468616e2060008201527f7a65726f00000000000000000000000000000000000000000000000000000000602082015250565b600061181860248361153c565b9150611823826117bc565b604082019050919050565b600060208201905081810360008301526118478161180b565b9050919050565b7f4e487b7100000000000000000000000000000000000000000000000000000000600052601160045260246000fd5b600061188882611204565b915061189383611204565b92508282019050808211156118ab576118aa61184e565b5b92915050565b60006040820190506118c6600083018561138b565b6118d360208301846112e0565b9392505050565b7f4f6e6c79206f776e657200000000000000000000000000000000000000000000600082015250565b6000611910600a8361153c565b915061191b826118da565b602082019050919050565b6000602082019050818103600083015261193f81611903565b9050919050565b7f52616365206d75737420626520636c6f73656420666972737400000000000000600082015250565b600061197c60198361153c565b915061198782611946565b602082019050919050565b600060208201905081810360008301526119ab8161196f565b9050919050565b600081905092915050565b82818337600083830152505050565b60006119d883856119b2565b93506119e58385846119bd565b82840190509392505050565b60006119fe8284866119cc565b91508190509392505050565b7f496e76616c696420736565640000000000000000000000000000000000000000600082015250565b6000611a40600c8361153c565b9150611a4b82611a0a565b602082019050919050565b60006020820190508181036000830152611a6f81611a33565b9050919050565b6000611a8182611204565b9150611a8c83611204565b9250828203905081811115611aa457611aa361184e565b5b92915050565b6000819050919050565b611ac5611ac0826114bf565b611aaa565b82525050565b6000819050919050565b611ae6611ae182611204565b611acb565b82525050565b60008160601b9050919050565b6000611b0482611aec565b9050919050565b6000611b1682611af9565b9050919050565b611b2e611b298261136a565b611b0b565b82525050565b6000611b418287896119cc565b9150611b4d8286611ab4565b602082019150611b5d8285611ad5565b602082019150611b6d8284611b1d565b6014820191508190509695505050505050565b7f4e487b7100000000000000000000000000000000000000000000000000000000600052601260045260246000fd5b6000611bba82611204565b9150611bc583611204565b925082611bd557611bd4611b80565b5b828206905092915050565b600082905092915050565b7f4e487b7100000000000000000000000000000000000000000000000000000000600052604160045260246000fd5b7f4e487b7100000000000000000000000000000000000000000000000000000000600052602260045260246000fd5b60006002820490506001821680611c6157607f821691505b602082108103611c7457611c73611c1a565b5b50919050565b60008190508160005260206000209050919050565b60006020601f8301049050919050565b600082821b905092915050565b600060088302611cdc7fffffffffffffffffffffffffffffffffffffffffffffffffffffffffffffffff82611c9f565b611ce68683611c9f565b95508019841693508086168417925050509392505050565b6000819050919050565b6000611d23611d1e611d1984611204565b611cfe565b611204565b9050919050565b6000819050919050565b611d3d83611d08565b611d51611d4982611d2a565b848454611cac565b825550505050565b600090565b611d66611d59565b611d71818484611d34565b505050565b5b81811015611d9557611d8a600082611d5e565b600181019050611d77565b5050565b601f821115611dda57611dab81611c7a565b611db484611c8f565b81016020851015611dc3578190505b611dd7611dcf85611c8f565b830182611d76565b50505b505050565b600082821c905092915050565b6000611dfd60001984600802611ddf565b1980831691505092915050565b6000611e168383611dec565b9150826002028217905092915050565b611e308383611be0565b67ffffffffffffffff811115611e4957611e48611beb565b5b611e538254611c49565b611e5e828285611d99565b6000601f831160018114611e8d5760008415611e7b578287013590505b611e858582611e0a565b865550611eed565b601f198416611e9b86611c7a565b60005b82811015611ec357848901358255600182019150602085019450602081019050611e9e565b86831015611ee05784890135611edc601f891682611dec565b8355505b6001600288020188555050505b50505050505050565b6000611f02838561153c565b9350611f0f8385846119bd565b611f1883611577565b840190509392505050565b6000604082019050611f38600083018661138b565b8181036020830152611f4b818486611ef6565b9050949350505050565b6000611f6082611204565b91507fffffffffffffffffffffffffffffffffffffffffffffffffffffffffffffffff8203611f9257611f9161184e565b5b600182019050919050565b611fa682611531565b67ffffffffffffffff811115611fbf57611fbe611beb565b5b611fc98254611c49565b611fd4828285611d99565b600060209050601f8311600181146120075760008415611ff5578287015190505b611fff8582611e0a565b865550612067565b601f19841661201586611c7a565b60005b8281101561203d57848901518255600182019150602085019450602081019050612018565b8683101561205a5784890151612056601f891682611dec565b8355505b6001600288020188555050505b505050505050565b60006020820190506120846000830184611522565b92915050565b7f52616365206e6f742066696e6973686564000000000000000000000000000000600082015250565b60006120c060118361153c565b91506120cb8261208a565b602082019050919050565b600060208201905081810360008301526120ef816120b3565b9050919050565b7f496e76616c69642062657420696e646578000000000000000000000000000000600082015250565b600061212c60118361153c565b9150612137826120f6565b602082019050919050565b6000602082019050818103600083015261215b8161211f565b9050919050565b7f4e487b7100000000000000000000000000000000000000000000000000000000600052603260045260246000fd5b7f4e6f7420796f7572206265740000000000000000000000000000000000000000600082015250565b60006121c7600c8361153c565b91506121d282612191565b602082019050919050565b600060208201905081810360008301526121f6816121ba565b9050919050565b7f416c726561647920706169640000000000000000000000000000000000000000600082015250565b6000612233600c8361153c565b915061223e826121fd565b602082019050919050565b6000602082019050818103600083015261226281612226565b9050919050565b7f42657420646964206e6f742077696e0000000000000000000000000000000000600082015250565b600061229f600f8361153c565b91506122aa82612269565b602082019050919050565b600060208201905081810360008301526122ce81612292565b9050919050565b7f4e6f2077696e6e696e6720706f6f6c0000000000000000000000000000000000600082015250565b600061230b600f8361153c565b9150612316826122d5565b602082019050919050565b6000602082019050818103600083015261233a816122fe565b9050919050565b600061234c82611204565b915061235783611204565b925082820261236581611204565b9150828204841483151761237c5761237b61184e565b5b5092915050565b600061238e82611204565b915061239983611204565b9250826123a9576123a8611b80565b5b82820490509291505056fea2646970667358221220790cb51c69ff91d2ff506653bc40b48b52bef1274c1170ec10ceafeb8e4f696664736f6c63430008180033","opcodes":"PUSH1 0x80 PUSH1 0x40 MSTORE CALLVALUE DUP1 ISZERO PUSH2 0x10 JUMPI PUSH1 0x0 DUP1 REVERT JUMPDEST POP CALLER PUSH1 0x0 DUP1 PUSH2 0x100 EXP DUP2 SLOAD DUP2 PUSH20 0xFFFFFFFFFFFFFFFFFFFFFFFFFFFFFFFFFFFFFFFF MUL NOT AND SWAP1 DUP4 PUSH20 0xFFFFFFFFFFFFFFFFFFFFFFFFFFFFFFFFFFFFFFFF AND MUL OR SWAP1 SSTORE POP PUSH2 0x23EA DUP1 PUSH2 0x60 PUSH1 0x0 CODECOPY PUSH1 0x0 RETURN INVALID PUSH1 0x80 PUSH1 0x40 MSTORE PUSH1 0x4 CALLDATASIZE LT PUSH2 0xC2 JUMPI PUSH1 0x0 CALLDATALOAD PUSH1 0xE0 SHR DUP1 PUSH4 0x710ADA35 GT PUSH2 0x7F JUMPI DUP1 PUSH4 0x8DA5CB5B GT PUSH2 0x59 JUMPI DUP1 PUSH4 0x8DA5CB5B EQ PUSH2 0x286 JUMPI DUP1 PUSH4 0x96B73A24 EQ PUSH2 0x2B1 JUMPI DUP1 PUSH4 0xA1CB09C5 EQ PUSH2 0x2DA JUMPI DUP1 PUSH4 0xB228DBD1 EQ PUSH2 0x317 JUMPI PUSH2 0xC2 JUMP JUMPDEST DUP1 PUSH4 0x710ADA35 EQ PUSH2 0x1EF JUMPI DUP1 PUSH4 0x7B154140 EQ PUSH2 0x21A JUMPI DUP1 PUSH4 0x7BBC469E EQ PUSH2 0x243 JUMPI PUSH2 0xC2 JUMP JUMPDEST DUP1 PUSH4 0x3EDF914 EQ PUSH2 0xC7 JUMPI DUP1 PUSH4 0x5C4CB45 EQ PUSH2 0xE3 JUMPI DUP1 PUSH4 0x255CB175 EQ PUSH2 0x120 JUMPI DUP1 PUSH4 0x27F43C2C EQ PUSH2 0x15D JUMPI DUP1 PUSH4 0x317B6346 EQ PUSH2 0x19D JUMPI DUP1 PUSH4 0x5154A115 EQ PUSH2 0x1C6 JUMPI JUMPDEST PUSH1 0x0 DUP1 REVERT JUMPDEST PUSH2 0xE1 PUSH1 0x4 DUP1 CALLDATASIZE SUB DUP2 ADD SWAP1 PUSH2 0xDC SWAP2 SWAP1 PUSH2 0x1273 JUMP JUMPDEST PUSH2 0x342 JUMP JUMPDEST STOP JUMPDEST CALLVALUE DUP1 ISZERO PUSH2 0xEF JUMPI PUSH1 0x0 DUP1 REVERT JUMPDEST POP PUSH2 0x10A PUSH1 0x4 DUP1 CALLDATASIZE SUB DUP2 ADD SWAP1 PUSH2 0x105 SWAP2 SWAP1 PUSH2 0x12B3 JUMP JUMPDEST PUSH2 0x62D JUMP JUMPDEST PUSH1 0x40 MLOAD PUSH2 0x117 SWAP2 SWAP1 PUSH2 0x12EF JUMP JUMPDEST PUSH1 0x40 MLOAD DUP1 SWAP2 SUB SWAP1 RETURN JUMPDEST CALLVALUE DUP1 ISZERO PUSH2 0x12C JUMPI PUSH1 0x0 DUP1 REVERT JUMPDEST POP PUSH2 0x147 PUSH1 0x4 DUP1 CALLDATASIZE SUB DUP2 ADD SWAP1 PUSH2 0x142 SWAP2 SWAP1 PUSH2 0x1273 JUMP JUMPDEST PUSH2 0x64D JUMP JUMPDEST PUSH1 0x40 MLOAD PUSH2 0x154 SWAP2 SWAP1 PUSH2 0x12EF JUMP JUMPDEST PUSH1 0x40 MLOAD DUP1 SWAP2 SUB SWAP1 RETURN JUMPDEST CALLVALUE DUP1 ISZERO PUSH2 0x169 JUMPI PUSH1 0x0 DUP1 REVERT JUMPDEST POP PUSH2 0x184 PUSH1 0x4 DUP1 CALLDATASIZE SUB DUP2 ADD SWAP1 PUSH2 0x17F SWAP2 SWAP1 PUSH2 0x130A JUMP JUMPDEST PUSH2 0x682 JUMP JUMPDEST PUSH1 0x40 MLOAD PUSH2 0x194 SWAP5 SWAP4 SWAP3 SWAP2 SWAP1 PUSH2 0x13B5 JUMP JUMPDEST PUSH1 0x40 MLOAD DUP1 SWAP2 SUB SWAP1 RETURN JUMPDEST CALLVALUE DUP1 ISZERO PUSH2 0x1A9 JUMPI PUSH1 0x0 DUP1 REVERT JUMPDEST POP PUSH2 0x1C4 PUSH1 0x4 DUP1 CALLDATASIZE SUB DUP2 ADD SWAP1 PUSH2 0x1BF SWAP2 SWAP1 PUSH2 0x145F JUMP JUMPDEST PUSH2 0x709 JUMP JUMPDEST STOP JUMPDEST CALLVALUE DUP1 ISZERO PUSH2 0x1D2 JUMPI PUSH1 0x0 DUP1 REVERT JUMPDEST POP PUSH2 0x1ED PUSH1 0x4 DUP1 CALLDATASIZE SUB DUP2 ADD SWAP1 PUSH2 0x1E8 SWAP2 SWAP1 PUSH2 0x14F5 JUMP JUMPDEST PUSH2 0x9CC JUMP JUMPDEST STOP JUMPDEST CALLVALUE DUP1 ISZERO PUSH2 0x1FB JUMPI PUSH1 0x0 DUP1 REVERT JUMPDEST POP PUSH2 0x204 PUSH2 0xBB3 JUMP JUMPDEST PUSH1 0x40 MLOAD PUSH2 0x211 SWAP2 SWAP1 PUSH2 0x12EF JUMP JUMPDEST PUSH1 0x40 MLOAD DUP1 SWAP2 SUB SWAP1 RETURN JUMPDEST CALLVALUE DUP1 ISZERO PUSH2 0x226 JUMPI PUSH1 0x0 DUP1 REVERT JUMPDEST POP PUSH2 0x241 PUSH1 0x4 DUP1 CALLDATASIZE SUB DUP2 ADD SWAP1 PUSH2 0x23C SWAP2 SWAP1 PUSH2 0x130A JUMP JUMPDEST PUSH2 0xBB9 JUMP JUMPDEST STOP JUMPDEST CALLVALUE DUP1 ISZERO PUSH2 0x24F JUMPI PUSH1 0x0 DUP1 REVERT JUMPDEST POP PUSH2 0x26A PUSH1 0x4 DUP1 CALLDATASIZE SUB DUP2 ADD SWAP1 PUSH2 0x265 SWAP2 SWAP1 PUSH2 0x12B3 JUMP JUMPDEST PUSH2 0xF4D JUMP JUMPDEST PUSH1 0x40 MLOAD PUSH2 0x27D SWAP8 SWAP7 SWAP6 SWAP5 SWAP4 SWAP3 SWAP2 SWAP1 PUSH2 0x1638 JUMP JUMPDEST PUSH1 0x40 MLOAD DUP1 SWAP2 SUB SWAP1 RETURN JUMPDEST CALLVALUE DUP1 ISZERO PUSH2 0x292 JUMPI PUSH1 0x0 DUP1 REVERT JUMPDEST POP PUSH2 0x29B PUSH2 0x1031 JUMP JUMPDEST PUSH1 0x40 MLOAD PUSH2 0x2A8 SWAP2 SWAP1 PUSH2 0x16AE JUMP JUMPDEST PUSH1 0x40 MLOAD DUP1 SWAP2 SUB SWAP1 RETURN JUMPDEST CALLVALUE DUP1 ISZERO PUSH2 0x2BD JUMPI PUSH1 0x0 DUP1 REVERT JUMPDEST POP PUSH2 0x2D8 PUSH1 0x4 DUP1 CALLDATASIZE SUB DUP2 ADD SWAP1 PUSH2 0x2D3 SWAP2 SWAP1 PUSH2 0x12B3 JUMP JUMPDEST PUSH2 0x1055 JUMP JUMPDEST STOP JUMPDEST CALLVALUE DUP1 ISZERO PUSH2 0x2E6 JUMPI PUSH1 0x0 DUP1 REVERT JUMPDEST POP PUSH2 0x301 PUSH1 0x4 DUP1 CALLDATASIZE SUB DUP2 ADD SWAP1 PUSH2 0x2FC SWAP2 SWAP1 PUSH2 0x1273 JUMP JUMPDEST PUSH2 0x11D0 JUMP JUMPDEST PUSH1 0x40 MLOAD PUSH2 0x30E SWAP2 SWAP1 PUSH2 0x12EF JUMP JUMPDEST PUSH1 0x40 MLOAD DUP1 SWAP2 SUB SWAP1 RETURN JUMPDEST CALLVALUE DUP1 ISZERO PUSH2 0x323 JUMPI PUSH1 0x0 DUP1 REVERT JUMPDEST POP PUSH2 0x32C PUSH2 0x11F5 JUMP JUMPDEST PUSH1 0x40 MLOAD PUSH2 0x339 SWAP2 SWAP1 PUSH2 0x16C9 JUMP JUMPDEST PUSH1 0x40 MLOAD DUP1 SWAP2 SUB SWAP1 RETURN JUMPDEST PUSH1 0x0 PUSH1 0x2 PUSH1 0x0 DUP5 DUP2 MSTORE PUSH1 0x20 ADD SWAP1 DUP2 MSTORE PUSH1 0x20 ADD PUSH1 0x0 KECCAK256 SWAP1 POP PUSH1 0x0 PUSH1 0x3 DUP2 GT ISZERO PUSH2 0x36D JUMPI PUSH2 0x36C PUSH2 0x15C1 JUMP JUMPDEST JUMPDEST DUP2 PUSH1 0x6 ADD PUSH1 0x0 SWAP1 SLOAD SWAP1 PUSH2 0x100 EXP SWAP1 DIV PUSH1 0xFF AND PUSH1 0x3 DUP2 GT ISZERO PUSH2 0x391 JUMPI PUSH2 0x390 PUSH2 0x15C1 JUMP JUMPDEST JUMPDEST EQ PUSH2 0x3D1 JUMPI PUSH1 0x40 MLOAD PUSH32 0x8C379A000000000000000000000000000000000000000000000000000000000 DUP2 MSTORE PUSH1 0x4 ADD PUSH2 0x3C8 SWAP1 PUSH2 0x1730 JUMP JUMPDEST PUSH1 0x40 MLOAD DUP1 SWAP2 SUB SWAP1 REVERT JUMPDEST PUSH1 0x1 DUP3 PUSH1 0xFF AND LT ISZERO DUP1 ISZERO PUSH2 0x3EC JUMPI POP PUSH1 0x6 PUSH1 0xFF AND DUP3 PUSH1 0xFF AND GT ISZERO JUMPDEST PUSH2 0x42B JUMPI PUSH1 0x40 MLOAD PUSH32 0x8C379A000000000000000000000000000000000000000000000000000000000 DUP2 MSTORE PUSH1 0x4 ADD PUSH2 0x422 SWAP1 PUSH2 0x179C JUMP JUMPDEST PUSH1 0x40 MLOAD DUP1 SWAP2 SUB SWAP1 REVERT JUMPDEST PUSH1 0x0 CALLVALUE GT PUSH2 0x46E JUMPI PUSH1 0x40 MLOAD PUSH32 0x8C379A000000000000000000000000000000000000000000000000000000000 DUP2 MSTORE PUSH1 0x4 ADD PUSH2 0x465 SWAP1 PUSH2 0x182E JUMP JUMPDEST PUSH1 0x40 MLOAD DUP1 SWAP2 SUB SWAP1 REVERT JUMPDEST PUSH1 0x3 PUSH1 0x0 DUP5 DUP2 MSTORE PUSH1 0x20 ADD SWAP1 DUP2 MSTORE PUSH1 0x20 ADD PUSH1 0x0 KECCAK256 PUSH1 0x40 MLOAD DUP1 PUSH1 0x80 ADD PUSH1 0x40 MSTORE DUP1 CALLER PUSH20 0xFFFFFFFFFFFFFFFFFFFFFFFFFFFFFFFFFFFFFFFF AND DUP2 MSTORE PUSH1 0x20 ADD DUP5 PUSH1 0xFF AND DUP2 MSTORE PUSH1 0x20 ADD CALLVALUE DUP2 MSTORE PUSH1 0x20 ADD PUSH1 0x0 ISZERO ISZERO DUP2 MSTORE POP SWAP1 DUP1 PUSH1 0x1 DUP2 SLOAD ADD DUP1 DUP3 SSTORE DUP1 SWAP2 POP POP PUSH1 0x1 SWAP1 SUB SWAP1 PUSH1 0x0 MSTORE PUSH1 0x20 PUSH1 0x0 KECCAK256 SWAP1 PUSH1 0x3 MUL ADD PUSH1 0x0 SWAP1 SWAP2 SWAP1 SWAP2 SWAP1 SWAP2 POP PUSH1 0x0 DUP3 ADD MLOAD DUP2 PUSH1 0x0 ADD PUSH1 0x0 PUSH2 0x100 EXP DUP2 SLOAD DUP2 PUSH20 0xFFFFFFFFFFFFFFFFFFFFFFFFFFFFFFFFFFFFFFFF MUL NOT AND SWAP1 DUP4 PUSH20 0xFFFFFFFFFFFFFFFFFFFFFFFFFFFFFFFFFFFFFFFF AND MUL OR SWAP1 SSTORE POP PUSH1 0x20 DUP3 ADD MLOAD DUP2 PUSH1 0x0 ADD PUSH1 0x14 PUSH2 0x100 EXP DUP2 SLOAD DUP2 PUSH1 0xFF MUL NOT AND SWAP1 DUP4 PUSH1 0xFF AND MUL OR SWAP1 SSTORE POP PUSH1 0x40 DUP3 ADD MLOAD DUP2 PUSH1 0x1 ADD SSTORE PUSH1 0x60 DUP3 ADD MLOAD DUP2 PUSH1 0x2 ADD PUSH1 0x0 PUSH2 0x100 EXP DUP2 SLOAD DUP2 PUSH1 0xFF MUL NOT AND SWAP1 DUP4 ISZERO ISZERO MUL OR SWAP1 SSTORE POP POP POP CALLVALUE DUP2 PUSH1 0x4 ADD PUSH1 0x0 DUP3 DUP3 SLOAD PUSH2 0x58F SWAP2 SWAP1 PUSH2 0x187D JUMP JUMPDEST SWAP3 POP POP DUP2 SWAP1 SSTORE POP CALLVALUE PUSH1 0x4 PUSH1 0x0 DUP6 DUP2 MSTORE PUSH1 0x20 ADD SWAP1 DUP2 MSTORE PUSH1 0x20 ADD PUSH1 0x0 KECCAK256 PUSH1 0x0 DUP5 PUSH1 0xFF AND PUSH1 0xFF AND DUP2 MSTORE PUSH1 0x20 ADD SWAP1 DUP2 MSTORE PUSH1 0x20 ADD PUSH1 0x0 KECCAK256 PUSH1 0x0 DUP3 DUP3 SLOAD PUSH2 0x5D0 SWAP2 SWAP1 PUSH2 0x187D JUMP JUMPDEST SWAP3 POP POP DUP2 SWAP1 SSTORE POP CALLER PUSH20 0xFFFFFFFFFFFFFFFFFFFFFFFFFFFFFFFFFFFFFFFF AND DUP4 PUSH32 0x4F1EED5E863A822B0F9EB960DFDAB2CC5A99BEEC4B191F2A7A9C7E28E5A15524 DUP5 CALLVALUE PUSH1 0x40 MLOAD PUSH2 0x620 SWAP3 SWAP2 SWAP1 PUSH2 0x18B1 JUMP JUMPDEST PUSH1 0x40 MLOAD DUP1 SWAP2 SUB SWAP1 LOG3 POP POP POP JUMP JUMPDEST PUSH1 0x0 PUSH1 0x3 PUSH1 0x0 DUP4 DUP2 MSTORE PUSH1 0x20 ADD SWAP1 DUP2 MSTORE PUSH1 0x20 ADD PUSH1 0x0 KECCAK256 DUP1 SLOAD SWAP1 POP SWAP1 POP SWAP2 SWAP1 POP JUMP JUMPDEST PUSH1 0x0 PUSH1 0x4 PUSH1 0x0 DUP5 DUP2 MSTORE PUSH1 0x20 ADD SWAP1 DUP2 MSTORE PUSH1 0x20 ADD PUSH1 0x0 KECCAK256 PUSH1 0x0 DUP4 PUSH1 0xFF AND PUSH1 0xFF AND DUP2 MSTORE PUSH1 0x20 ADD SWAP1 DUP2 MSTORE PUSH1 0x20 ADD PUSH1 0x0 KECCAK256 SLOAD SWAP1 POP SWAP3 SWAP2 POP POP JUMP JUMPDEST PUSH1 0x3 PUSH1 0x20 MSTORE DUP2 PUSH1 0x0 MSTORE PUSH1 0x40 PUSH1 0x0 KECCAK256 DUP2 DUP2 SLOAD DUP2 LT PUSH2 0x69E JUMPI PUSH1 0x0 DUP1 REVERT JUMPDEST SWAP1 PUSH1 0x0 MSTORE PUSH1 0x20 PUSH1 0x0 KECCAK256 SWAP1 PUSH1 0x3 MUL ADD PUSH1 0x0 SWAP2 POP SWAP2 POP POP DUP1 PUSH1 0x0 ADD PUSH1 0x0 SWAP1 SLOAD SWAP1 PUSH2 0x100 EXP SWAP1 DIV PUSH20 0xFFFFFFFFFFFFFFFFFFFFFFFFFFFFFFFFFFFFFFFF AND SWAP1 DUP1 PUSH1 0x0 ADD PUSH1 0x14 SWAP1 SLOAD SWAP1 PUSH2 0x100 EXP SWAP1 DIV PUSH1 0xFF AND SWAP1 DUP1 PUSH1 0x1 ADD SLOAD SWAP1 DUP1 PUSH1 0x2 ADD PUSH1 0x0 SWAP1 SLOAD SWAP1 PUSH2 0x100 EXP SWAP1 DIV PUSH1 0xFF AND SWAP1 POP DUP5 JUMP JUMPDEST PUSH1 0x0 DUP1 SLOAD SWAP1 PUSH2 0x100 EXP SWAP1 DIV PUSH20 0xFFFFFFFFFFFFFFFFFFFFFFFFFFFFFFFFFFFFFFFF AND PUSH20 0xFFFFFFFFFFFFFFFFFFFFFFFFFFFFFFFFFFFFFFFF AND CALLER PUSH20 0xFFFFFFFFFFFFFFFFFFFFFFFFFFFFFFFFFFFFFFFF AND EQ PUSH2 0x797 JUMPI PUSH1 0x40 MLOAD PUSH32 0x8C379A000000000000000000000000000000000000000000000000000000000 DUP2 MSTORE PUSH1 0x4 ADD PUSH2 0x78E SWAP1 PUSH2 0x1926 JUMP JUMPDEST PUSH1 0x40 MLOAD DUP1 SWAP2 SUB SWAP1 REVERT JUMPDEST PUSH1 0x0 PUSH1 0x2 PUSH1 0x0 DUP6 DUP2 MSTORE PUSH1 0x20 ADD SWAP1 DUP2 MSTORE PUSH1 0x20 ADD PUSH1 0x0 KECCAK256 SWAP1 POP PUSH1 0x1 PUSH1 0x3 DUP2 GT ISZERO PUSH2 0x7C2 JUMPI PUSH2 0x7C1 PUSH2 0x15C1 JUMP JUMPDEST JUMPDEST DUP2 PUSH1 0x6 ADD PUSH1 0x0 SWAP1 SLOAD SWAP1 PUSH2 0x100 EXP SWAP1 DIV PUSH1 0xFF AND PUSH1 0x3 DUP2 GT ISZERO PUSH2 0x7E6 JUMPI PUSH2 0x7E5 PUSH2 0x15C1 JUMP JUMPDEST JUMPDEST EQ PUSH2 0x826 JUMPI PUSH1 0x40 MLOAD PUSH32 0x8C379A000000000000000000000000000000000000000000000000000000000 DUP2 MSTORE PUSH1 0x4 ADD PUSH2 0x81D SWAP1 PUSH2 0x1992 JUMP JUMPDEST PUSH1 0x40 MLOAD DUP1 SWAP2 SUB SWAP1 REVERT JUMPDEST DUP1 PUSH1 0x1 ADD SLOAD DUP4 DUP4 PUSH1 0x40 MLOAD PUSH1 0x20 ADD PUSH2 0x83E SWAP3 SWAP2 SWAP1 PUSH2 0x19F1 JUMP JUMPDEST PUSH1 0x40 MLOAD PUSH1 0x20 DUP2 DUP4 SUB SUB DUP2 MSTORE SWAP1 PUSH1 0x40 MSTORE DUP1 MLOAD SWAP1 PUSH1 0x20 ADD KECCAK256 EQ PUSH2 0x894 JUMPI PUSH1 0x40 MLOAD PUSH32 0x8C379A000000000000000000000000000000000000000000000000000000000 DUP2 MSTORE PUSH1 0x4 ADD PUSH2 0x88B SWAP1 PUSH2 0x1A56 JUMP JUMPDEST PUSH1 0x40 MLOAD DUP1 SWAP2 SUB SWAP1 REVERT JUMPDEST PUSH1 0x0 DUP4 DUP4 PUSH1 0x1 NUMBER PUSH2 0x8A5 SWAP2 SWAP1 PUSH2 0x1A76 JUMP JUMPDEST BLOCKHASH DUP8 ADDRESS PUSH1 0x40 MLOAD PUSH1 0x20 ADD PUSH2 0x8BC SWAP6 SWAP5 SWAP4 SWAP3 SWAP2 SWAP1 PUSH2 0x1B34 JUMP JUMPDEST PUSH1 0x40 MLOAD PUSH1 0x20 DUP2 DUP4 SUB SUB DUP2 MSTORE SWAP1 PUSH1 0x40 MSTORE DUP1 MLOAD SWAP1 PUSH1 0x20 ADD KECCAK256 PUSH1 0x0 SHR SWAP1 POP PUSH1 0x0 PUSH1 0x1 PUSH1 0x6 PUSH1 0xFF AND DUP4 PUSH2 0x8EB SWAP2 SWAP1 PUSH2 0x1BAF JUMP JUMPDEST PUSH2 0x8F5 SWAP2 SWAP1 PUSH2 0x187D JUMP JUMPDEST SWAP1 POP DUP5 DUP5 DUP5 PUSH1 0x2 ADD SWAP2 DUP3 PUSH2 0x90A SWAP3 SWAP2 SWAP1 PUSH2 0x1E26 JUMP JUMPDEST POP DUP1 DUP4 PUSH1 0x3 ADD PUSH1 0x0 PUSH2 0x100 EXP DUP2 SLOAD DUP2 PUSH1 0xFF MUL NOT AND SWAP1 DUP4 PUSH1 0xFF AND MUL OR SWAP1 SSTORE POP PUSH1 0x4 PUSH1 0x0 DUP8 DUP2 MSTORE PUSH1 0x20 ADD SWAP1 DUP2 MSTORE PUSH1 0x20 ADD PUSH1 0x0 KECCAK256 PUSH1 0x0 DUP3 PUSH1 0xFF AND PUSH1 0xFF AND DUP2 MSTORE PUSH1 0x20 ADD SWAP1 DUP2 MSTORE PUSH1 0x20 ADD PUSH1 0x0 KECCAK256 SLOAD DUP4 PUSH1 0x5 ADD DUP2 SWAP1 SSTORE POP PUSH1 0x2 DUP4 PUSH1 0x6 ADD PUSH1 0x0 PUSH2 0x100 EXP DUP2 SLOAD DUP2 PUSH1 0xFF MUL NOT AND SWAP1 DUP4 PUSH1 0x3 DUP2 GT ISZERO PUSH2 0x983 JUMPI PUSH2 0x982 PUSH2 0x15C1 JUMP JUMPDEST JUMPDEST MUL OR SWAP1 SSTORE POP DUP6 PUSH32 0x8B7CADD1E328FEA586AD5AD6E0889CA11D45A91747055764D3B64FC104B0565E DUP3 DUP8 DUP8 PUSH1 0x40 MLOAD PUSH2 0x9BC SWAP4 SWAP3 SWAP2 SWAP1 PUSH2 0x1F23 JUMP JUMPDEST PUSH1 0x40 MLOAD DUP1 SWAP2 SUB SWAP1 LOG2 POP POP POP POP POP POP JUMP JUMPDEST PUSH1 0x0 DUP1 SLOAD SWAP1 PUSH2 0x100 EXP SWAP1 DIV PUSH20 0xFFFFFFFFFFFFFFFFFFFFFFFFFFFFFFFFFFFFFFFF AND PUSH20 0xFFFFFFFFFFFFFFFFFFFFFFFFFFFFFFFFFFFFFFFF AND CALLER PUSH20 0xFFFFFFFFFFFFFFFFFFFFFFFFFFFFFFFFFFFFFFFF AND EQ PUSH2 0xA5A JUMPI PUSH1 0x40 MLOAD PUSH32 0x8C379A000000000000000000000000000000000000000000000000000000000 DUP2 MSTORE PUSH1 0x4 ADD PUSH2 0xA51 SWAP1 PUSH2 0x1926 JUMP JUMPDEST PUSH1 0x40 MLOAD DUP1 SWAP2 SUB SWAP1 REVERT JUMPDEST PUSH1 0x1 PUSH1 0x0 DUP2 SLOAD DUP1 SWAP3 SWAP2 SWAP1 PUSH2 0xA6D SWAP1 PUSH2 0x1F55 JUMP JUMPDEST SWAP2 SWAP1 POP SSTORE POP PUSH1 0x40 MLOAD DUP1 PUSH1 0xE0 ADD PUSH1 0x40 MSTORE DUP1 PUSH1 0x1 SLOAD DUP2 MSTORE PUSH1 0x20 ADD DUP3 DUP2 MSTORE PUSH1 0x20 ADD PUSH1 0x40 MLOAD DUP1 PUSH1 0x20 ADD PUSH1 0x40 MSTORE DUP1 PUSH1 0x0 DUP2 MSTORE POP DUP2 MSTORE PUSH1 0x20 ADD PUSH1 0x0 PUSH1 0xFF AND DUP2 MSTORE PUSH1 0x20 ADD PUSH1 0x0 DUP2 MSTORE PUSH1 0x20 ADD PUSH1 0x0 DUP2 MSTORE PUSH1 0x20 ADD PUSH1 0x0 PUSH1 0x3 DUP2 GT ISZERO PUSH2 0xACC JUMPI PUSH2 0xACB PUSH2 0x15C1 JUMP JUMPDEST JUMPDEST DUP2 MSTORE POP PUSH1 0x2 PUSH1 0x0 PUSH1 0x1 SLOAD DUP2 MSTORE PUSH1 0x20 ADD SWAP1 DUP2 MSTORE PUSH1 0x20 ADD PUSH1 0x0 KECCAK256 PUSH1 0x0 DUP3 ADD MLOAD DUP2 PUSH1 0x0 ADD SSTORE PUSH1 0x20 DUP3 ADD MLOAD DUP2 PUSH1 0x1 ADD SSTORE PUSH1 0x40 DUP3 ADD MLOAD DUP2 PUSH1 0x2 ADD SWAP1 DUP2 PUSH2 0xB0D SWAP2 SWAP1 PUSH2 0x1F9D JUMP JUMPDEST POP PUSH1 0x60 DUP3 ADD MLOAD DUP2 PUSH1 0x3 ADD PUSH1 0x0 PUSH2 0x100 EXP DUP2 SLOAD DUP2 PUSH1 0xFF MUL NOT AND SWAP1 DUP4 PUSH1 0xFF AND MUL OR SWAP1 SSTORE POP PUSH1 0x80 DUP3 ADD MLOAD DUP2 PUSH1 0x4 ADD SSTORE PUSH1 0xA0 DUP3 ADD MLOAD DUP2 PUSH1 0x5 ADD SSTORE PUSH1 0xC0 DUP3 ADD MLOAD DUP2 PUSH1 0x6 ADD PUSH1 0x0 PUSH2 0x100 EXP DUP2 SLOAD DUP2 PUSH1 0xFF MUL NOT AND SWAP1 DUP4 PUSH1 0x3 DUP2 GT ISZERO PUSH2 0xB6E JUMPI PUSH2 0xB6D PUSH2 0x15C1 JUMP JUMPDEST JUMPDEST MUL OR SWAP1 SSTORE POP SWAP1 POP POP PUSH1 0x1 SLOAD PUSH32 0x215B332C4EE316DB2A99709BDA321C424FB0661B3C9C4C108B1CB2199F862749 DUP3 PUSH1 0x40 MLOAD PUSH2 0xBA8 SWAP2 SWAP1 PUSH2 0x206F JUMP JUMPDEST PUSH1 0x40 MLOAD DUP1 SWAP2 SUB SWAP1 LOG2 POP JUMP JUMPDEST PUSH1 0x1 SLOAD DUP2 JUMP JUMPDEST PUSH1 0x0 PUSH1 0x2 PUSH1 0x0 DUP5 DUP2 MSTORE PUSH1 0x20 ADD SWAP1 DUP2 MSTORE PUSH1 0x20 ADD PUSH1 0x0 KECCAK256 SWAP1 POP PUSH1 0x2 PUSH1 0x3 DUP2 GT ISZERO PUSH2 0xBE4 JUMPI PUSH2 0xBE3 PUSH2 0x15C1 JUMP JUMPDEST JUMPDEST DUP2 PUSH1 0x6 ADD PUSH1 0x0 SWAP1 SLOAD SWAP1 PUSH2 0x100 EXP SWAP1 DIV PUSH1 0xFF AND PUSH1 0x3 DUP2 GT ISZERO PUSH2 0xC08 JUMPI PUSH2 0xC07 PUSH2 0x15C1 JUMP JUMPDEST JUMPDEST EQ PUSH2 0xC48 JUMPI PUSH1 0x40 MLOAD PUSH32 0x8C379A000000000000000000000000000000000000000000000000000000000 DUP2 MSTORE PUSH1 0x4 ADD PUSH2 0xC3F SWAP1 PUSH2 0x20D6 JUMP JUMPDEST PUSH1 0x40 MLOAD DUP1 SWAP2 SUB SWAP1 REVERT JUMPDEST PUSH1 0x3 PUSH1 0x0 DUP5 DUP2 MSTORE PUSH1 0x20 ADD SWAP1 DUP2 MSTORE PUSH1 0x20 ADD PUSH1 0x0 KECCAK256 DUP1 SLOAD SWAP1 POP DUP3 LT PUSH2 0xCA0 JUMPI PUSH1 0x40 MLOAD PUSH32 0x8C379A000000000000000000000000000000000000000000000000000000000 DUP2 MSTORE PUSH1 0x4 ADD PUSH2 0xC97 SWAP1 PUSH2 0x2142 JUMP JUMPDEST PUSH1 0x40 MLOAD DUP1 SWAP2 SUB SWAP1 REVERT JUMPDEST PUSH1 0x0 PUSH1 0x3 PUSH1 0x0 DUP6 DUP2 MSTORE PUSH1 0x20 ADD SWAP1 DUP2 MSTORE PUSH1 0x20 ADD PUSH1 0x0 KECCAK256 DUP4 DUP2 SLOAD DUP2 LT PUSH2 0xCC7 JUMPI PUSH2 0xCC6 PUSH2 0x2162 JUMP JUMPDEST JUMPDEST SWAP1 PUSH1 0x0 MSTORE PUSH1 0x20 PUSH1 0x0 KECCAK256 SWAP1 PUSH1 0x3 MUL ADD SWAP1 POP CALLER PUSH20 0xFFFFFFFFFFFFFFFFFFFFFFFFFFFFFFFFFFFFFFFF AND DUP2 PUSH1 0x0 ADD PUSH1 0x0 SWAP1 SLOAD SWAP1 PUSH2 0x100 EXP SWAP1 DIV PUSH20 0xFFFFFFFFFFFFFFFFFFFFFFFFFFFFFFFFFFFFFFFF AND PUSH20 0xFFFFFFFFFFFFFFFFFFFFFFFFFFFFFFFFFFFFFFFF AND EQ PUSH2 0xD69 JUMPI PUSH1 0x40 MLOAD PUSH32 0x8C379A000000000000000000000000000000000000000000000000000000000 DUP2 MSTORE PUSH1 0x4 ADD PUSH2 0xD60 SWAP1 PUSH2 0x21DD JUMP JUMPDEST PUSH1 0x40 MLOAD DUP1 SWAP2 SUB SWAP1 REVERT JUMPDEST DUP1 PUSH1 0x2 ADD PUSH1 0x0 SWAP1 SLOAD SWAP1 PUSH2 0x100 EXP SWAP1 DIV PUSH1 0xFF AND ISZERO PUSH2 0xDBB JUMPI PUSH1 0x40 MLOAD PUSH32 0x8C379A000000000000000000000000000000000000000000000000000000000 DUP2 MSTORE PUSH1 0x4 ADD PUSH2 0xDB2 SWAP1 PUSH2 0x2249 JUMP JUMPDEST PUSH1 0x40 MLOAD DUP1 SWAP2 SUB SWAP1 REVERT JUMPDEST DUP2 PUSH1 0x3 ADD PUSH1 0x0 SWAP1 SLOAD SWAP1 PUSH2 0x100 EXP SWAP1 DIV PUSH1 0xFF AND PUSH1 0xFF AND DUP2 PUSH1 0x0 ADD PUSH1 0x14 SWAP1 SLOAD SWAP1 PUSH2 0x100 EXP SWAP1 DIV PUSH1 0xFF AND PUSH1 0xFF AND EQ PUSH2 0xE25 JUMPI PUSH1 0x40 MLOAD PUSH32 0x8C379A000000000000000000000000000000000000000000000000000000000 DUP2 MSTORE PUSH1 0x4 ADD PUSH2 0xE1C SWAP1 PUSH2 0x22B5 JUMP JUMPDEST PUSH1 0x40 MLOAD DUP1 SWAP2 SUB SWAP1 REVERT JUMPDEST PUSH1 0x0 DUP3 PUSH1 0x5 ADD SLOAD GT PUSH2 0xE6C JUMPI PUSH1 0x40 MLOAD PUSH32 0x8C379A000000000000000000000000000000000000000000000000000000000 DUP2 MSTORE PUSH1 0x4 ADD PUSH2 0xE63 SWAP1 PUSH2 0x2321 JUMP JUMPDEST PUSH1 0x40 MLOAD DUP1 SWAP2 SUB SWAP1 REVERT JUMPDEST PUSH1 0x0 DUP3 PUSH1 0x5 ADD SLOAD DUP4 PUSH1 0x4 ADD SLOAD DUP4 PUSH1 0x1 ADD SLOAD PUSH2 0xE87 SWAP2 SWAP1 PUSH2 0x2341 JUMP JUMPDEST PUSH2 0xE91 SWAP2 SWAP1 PUSH2 0x2383 JUMP JUMPDEST SWAP1 POP PUSH1 0x1 DUP3 PUSH1 0x2 ADD PUSH1 0x0 PUSH2 0x100 EXP DUP2 SLOAD DUP2 PUSH1 0xFF MUL NOT AND SWAP1 DUP4 ISZERO ISZERO MUL OR SWAP1 SSTORE POP CALLER PUSH20 0xFFFFFFFFFFFFFFFFFFFFFFFFFFFFFFFFFFFFFFFF AND PUSH2 0x8FC DUP3 SWAP1 DUP2 ISZERO MUL SWAP1 PUSH1 0x40 MLOAD PUSH1 0x0 PUSH1 0x40 MLOAD DUP1 DUP4 SUB DUP2 DUP6 DUP9 DUP9 CALL SWAP4 POP POP POP POP ISZERO DUP1 ISZERO PUSH2 0xEF6 JUMPI RETURNDATASIZE PUSH1 0x0 DUP1 RETURNDATACOPY RETURNDATASIZE PUSH1 0x0 REVERT JUMPDEST POP CALLER PUSH20 0xFFFFFFFFFFFFFFFFFFFFFFFFFFFFFFFFFFFFFFFF AND DUP6 PUSH32 0xFCF35A3FC019052976CDCD0CD1A67217972EE331E0B9BF6A37F2FDDFA276A014 DUP4 PUSH1 0x40 MLOAD PUSH2 0xF3E SWAP2 SWAP1 PUSH2 0x12EF JUMP JUMPDEST PUSH1 0x40 MLOAD DUP1 SWAP2 SUB SWAP1 LOG3 POP POP POP POP POP JUMP JUMPDEST PUSH1 0x2 PUSH1 0x20 MSTORE DUP1 PUSH1 0x0 MSTORE PUSH1 0x40 PUSH1 0x0 KECCAK256 PUSH1 0x0 SWAP2 POP SWAP1 POP DUP1 PUSH1 0x0 ADD SLOAD SWAP1 DUP1 PUSH1 0x1 ADD SLOAD SWAP1 DUP1 PUSH1 0x2 ADD DUP1 SLOAD PUSH2 0xF7C SWAP1 PUSH2 0x1C49 JUMP JUMPDEST DUP1 PUSH1 0x1F ADD PUSH1 0x20 DUP1 SWAP2 DIV MUL PUSH1 0x20 ADD PUSH1 0x40 MLOAD SWAP1 DUP2 ADD PUSH1 0x40 MSTORE DUP1 SWAP3 SWAP2 SWAP1 DUP2 DUP2 MSTORE PUSH1 0x20 ADD DUP3 DUP1 SLOAD PUSH2 0xFA8 SWAP1 PUSH2 0x1C49 JUMP JUMPDEST DUP1 ISZERO PUSH2 0xFF5 JUMPI DUP1 PUSH1 0x1F LT PUSH2 0xFCA JUMPI PUSH2 0x100 DUP1 DUP4 SLOAD DIV MUL DUP4 MSTORE SWAP2 PUSH1 0x20 ADD SWAP2 PUSH2 0xFF5 JUMP JUMPDEST DUP3 ADD SWAP2 SWAP1 PUSH1 0x0 MSTORE PUSH1 0x20 PUSH1 0x0 KECCAK256 SWAP1 JUMPDEST DUP2 SLOAD DUP2 MSTORE SWAP1 PUSH1 0x1 ADD SWAP1 PUSH1 0x20 ADD DUP1 DUP4 GT PUSH2 0xFD8 JUMPI DUP3 SWAP1 SUB PUSH1 0x1F AND DUP3 ADD SWAP2 JUMPDEST POP POP POP POP POP SWAP1 DUP1 PUSH1 0x3 ADD PUSH1 0x0 SWAP1 SLOAD SWAP1 PUSH2 0x100 EXP SWAP1 DIV PUSH1 0xFF AND SWAP1 DUP1 PUSH1 0x4 ADD SLOAD SWAP1 DUP1 PUSH1 0x5 ADD SLOAD SWAP1 DUP1 PUSH1 0x6 ADD PUSH1 0x0 SWAP1 SLOAD SWAP1 PUSH2 0x100 EXP SWAP1 DIV PUSH1 0xFF AND SWAP1 POP DUP8 JUMP JUMPDEST PUSH1 0x0 DUP1 SLOAD SWAP1 PUSH2 0x100 EXP SWAP1 DIV PUSH20 0xFFFFFFFFFFFFFFFFFFFFFFFFFFFFFFFFFFFFFFFF AND DUP2 JUMP JUMPDEST PUSH1 0x0 DUP1 SLOAD SWAP1 PUSH2 0x100 EXP SWAP1 DIV PUSH20 0xFFFFFFFFFFFFFFFFFFFFFFFFFFFFFFFFFFFFFFFF AND PUSH20 0xFFFFFFFFFFFFFFFFFFFFFFFFFFFFFFFFFFFFFFFF AND CALLER PUSH20 0xFFFFFFFFFFFFFFFFFFFFFFFFFFFFFFFFFFFFFFFF AND EQ PUSH2 0x10E3 JUMPI PUSH1 0x40 MLOAD PUSH32 0x8C379A000000000000000000000000000000000000000000000000000000000 DUP2 MSTORE PUSH1 0x4 ADD PUSH2 0x10DA SWAP1 PUSH2 0x1926 JUMP JUMPDEST PUSH1 0x40 MLOAD DUP1 SWAP2 SUB SWAP1 REVERT JUMPDEST PUSH1 0x0 PUSH1 0x2 PUSH1 0x0 DUP4 DUP2 MSTORE PUSH1 0x20 ADD SWAP1 DUP2 MSTORE PUSH1 0x20 ADD PUSH1 0x0 KECCAK256 SWAP1 POP PUSH1 0x0 PUSH1 0x3 DUP2 GT ISZERO PUSH2 0x110E JUMPI PUSH2 0x110D PUSH2 0x15C1 JUMP JUMPDEST JUMPDEST DUP2 PUSH1 0x6 ADD PUSH1 0x0 SWAP1 SLOAD SWAP1 PUSH2 0x100 EXP SWAP1 DIV PUSH1 0xFF AND PUSH1 0x3 DUP2 GT ISZERO PUSH2 0x1132 JUMPI PUSH2 0x1131 PUSH2 0x15C1 JUMP JUMPDEST JUMPDEST EQ PUSH2 0x1172 JUMPI PUSH1 0x40 MLOAD PUSH32 0x8C379A000000000000000000000000000000000000000000000000000000000 DUP2 MSTORE PUSH1 0x4 ADD PUSH2 0x1169 SWAP1 PUSH2 0x1730 JUMP JUMPDEST PUSH1 0x40 MLOAD DUP1 SWAP2 SUB SWAP1 REVERT JUMPDEST PUSH1 0x1 DUP2 PUSH1 0x6 ADD PUSH1 0x0 PUSH2 0x100 EXP DUP2 SLOAD DUP2 PUSH1 0xFF MUL NOT AND SWAP1 DUP4 PUSH1 0x3 DUP2 GT ISZERO PUSH2 0x119A JUMPI PUSH2 0x1199 PUSH2 0x15C1 JUMP JUMPDEST JUMPDEST MUL OR SWAP1 SSTORE POP DUP2 PUSH32 0x18817071BB121C258D6CBD7BB3729E2F3847CA88A7F7DBF5995FD78C5B5E6184 PUSH1 0x40 MLOAD PUSH1 0x40 MLOAD DUP1 SWAP2 SUB SWAP1 LOG2 POP POP JUMP JUMPDEST PUSH1 0x4 PUSH1 0x20 MSTORE DUP2 PUSH1 0x0 MSTORE PUSH1 0x40 PUSH1 0x0 KECCAK256 PUSH1 0x20 MSTORE DUP1 PUSH1 0x0 MSTORE PUSH1 0x40 PUSH1 0x0 KECCAK256 PUSH1 0x0 SWAP2 POP SWAP2 POP POP SLOAD DUP2 JUMP JUMPDEST PUSH1 0x6 DUP2 JUMP JUMPDEST PUSH1 0x0 DUP1 REVERT JUMPDEST PUSH1 0x0 DUP1 REVERT JUMPDEST PUSH1 0x0 DUP2 SWAP1 POP SWAP2 SWAP1 POP JUMP JUMPDEST PUSH2 0x1217 DUP2 PUSH2 0x1204 JUMP JUMPDEST DUP2 EQ PUSH2 0x1222 JUMPI PUSH1 0x0 DUP1 REVERT JUMPDEST POP JUMP JUMPDEST PUSH1 0x0 DUP2 CALLDATALOAD SWAP1 POP PUSH2 0x1234 DUP2 PUSH2 0x120E JUMP JUMPDEST SWAP3 SWAP2 POP POP JUMP JUMPDEST PUSH1 0x0 PUSH1 0xFF DUP3 AND SWAP1 POP SWAP2 SWAP1 POP JUMP JUMPDEST PUSH2 0x1250 DUP2 PUSH2 0x123A JUMP JUMPDEST DUP2 EQ PUSH2 0x125B JUMPI PUSH1 0x0 DUP1 REVERT JUMPDEST POP JUMP JUMPDEST PUSH1 0x0 DUP2 CALLDATALOAD SWAP1 POP PUSH2 0x126D DUP2 PUSH2 0x1247 JUMP JUMPDEST SWAP3 SWAP2 POP POP JUMP JUMPDEST PUSH1 0x0 DUP1 PUSH1 0x40 DUP4 DUP6 SUB SLT ISZERO PUSH2 0x128A JUMPI PUSH2 0x1289 PUSH2 0x11FA JUMP JUMPDEST JUMPDEST PUSH1 0x0 PUSH2 0x1298 DUP6 DUP3 DUP7 ADD PUSH2 0x1225 JUMP JUMPDEST SWAP3 POP POP PUSH1 0x20 PUSH2 0x12A9 DUP6 DUP3 DUP7 ADD PUSH2 0x125E JUMP JUMPDEST SWAP2 POP POP SWAP3 POP SWAP3 SWAP1 POP JUMP JUMPDEST PUSH1 0x0 PUSH1 0x20 DUP3 DUP5 SUB SLT ISZERO PUSH2 0x12C9 JUMPI PUSH2 0x12C8 PUSH2 0x11FA JUMP JUMPDEST JUMPDEST PUSH1 0x0 PUSH2 0x12D7 DUP5 DUP3 DUP6 ADD PUSH2 0x1225 JUMP JUMPDEST SWAP2 POP POP SWAP3 SWAP2 POP POP JUMP JUMPDEST PUSH2 0x12E9 DUP2 PUSH2 0x1204 JUMP JUMPDEST DUP3 MSTORE POP POP JUMP JUMPDEST PUSH1 0x0 PUSH1 0x20 DUP3 ADD SWAP1 POP PUSH2 0x1304 PUSH1 0x0 DUP4 ADD DUP5 PUSH2 0x12E0 JUMP JUMPDEST SWAP3 SWAP2 POP POP JUMP JUMPDEST PUSH1 0x0 DUP1 PUSH1 0x40 DUP4 DUP6 SUB SLT ISZERO PUSH2 0x1321 JUMPI PUSH2 0x1320 PUSH2 0x11FA JUMP JUMPDEST JUMPDEST PUSH1 0x0 PUSH2 0x132F DUP6 DUP3 DUP7 ADD PUSH2 0x1225 JUMP JUMPDEST SWAP3 POP POP PUSH1 0x20 PUSH2 0x1340 DUP6 DUP3 DUP7 ADD PUSH2 0x1225 JUMP JUMPDEST SWAP2 POP POP SWAP3 POP SWAP3 SWAP1 POP JUMP JUMPDEST PUSH1 0x0 PUSH20 0xFFFFFFFFFFFFFFFFFFFFFFFFFFFFFFFFFFFFFFFF DUP3 AND SWAP1 POP SWAP2 SWAP1 POP JUMP JUMPDEST PUSH1 0x0 PUSH2 0x1375 DUP3 PUSH2 0x134A JUMP JUMPDEST SWAP1 POP SWAP2 SWAP1 POP JUMP JUMPDEST PUSH2 0x1385 DUP2 PUSH2 0x136A JUMP JUMPDEST DUP3 MSTORE POP POP JUMP JUMPDEST PUSH2 0x1394 DUP2 PUSH2 0x123A JUMP JUMPDEST DUP3 MSTORE POP POP JUMP JUMPDEST PUSH1 0x0 DUP2 ISZERO ISZERO SWAP1 POP SWAP2 SWAP1 POP JUMP JUMPDEST PUSH2 0x13AF DUP2 PUSH2 0x139A JUMP JUMPDEST DUP3 MSTORE POP POP JUMP JUMPDEST PUSH1 0x0 PUSH1 0x80 DUP3 ADD SWAP1 POP PUSH2 0x13CA PUSH1 0x0 DUP4 ADD DUP8 PUSH2 0x137C JUMP JUMPDEST PUSH2 0x13D7 PUSH1 0x20 DUP4 ADD DUP7 PUSH2 0x138B JUMP JUMPDEST PUSH2 0x13E4 PUSH1 0x40 DUP4 ADD DUP6 PUSH2 0x12E0 JUMP JUMPDEST PUSH2 0x13F1 PUSH1 0x60 DUP4 ADD DUP5 PUSH2 0x13A6 JUMP JUMPDEST SWAP6 SWAP5 POP POP POP POP POP JUMP JUMPDEST PUSH1 0x0 DUP1 REVERT JUMPDEST PUSH1 0x0 DUP1 REVERT JUMPDEST PUSH1 0x0 DUP1 REVERT JUMPDEST PUSH1 0x0 DUP1 DUP4 PUSH1 0x1F DUP5 ADD SLT PUSH2 0x141F JUMPI PUSH2 0x141E PUSH2 0x13FA JUMP JUMPDEST JUMPDEST DUP3 CALLDATALOAD SWAP1 POP PUSH8 0xFFFFFFFFFFFFFFFF DUP2 GT ISZERO PUSH2 0x143C JUMPI PUSH2 0x143B PUSH2 0x13FF JUMP JUMPDEST JUMPDEST PUSH1 0x20 DUP4 ADD SWAP2 POP DUP4 PUSH1 0x1 DUP3 MUL DUP4 ADD GT ISZERO PUSH2 0x1458 JUMPI PUSH2 0x1457 PUSH2 0x1404 JUMP JUMPDEST JUMPDEST SWAP3 POP SWAP3 SWAP1 POP JUMP JUMPDEST PUSH1 0x0 DUP1 PUSH1 0x0 PUSH1 0x40 DUP5 DUP7 SUB SLT ISZERO PUSH2 0x1478 JUMPI PUSH2 0x1477 PUSH2 0x11FA JUMP JUMPDEST JUMPDEST PUSH1 0x0 PUSH2 0x1486 DUP7 DUP3 DUP8 ADD PUSH2 0x1225 JUMP JUMPDEST SWAP4 POP POP PUSH1 0x20 DUP5 ADD CALLDATALOAD PUSH8 0xFFFFFFFFFFFFFFFF DUP2 GT ISZERO PUSH2 0x14A7 JUMPI PUSH2 0x14A6 PUSH2 0x11FF JUMP JUMPDEST JUMPDEST PUSH2 0x14B3 DUP7 DUP3 DUP8 ADD PUSH2 0x1409 JUMP JUMPDEST SWAP3 POP SWAP3 POP POP SWAP3 POP SWAP3 POP SWAP3 JUMP JUMPDEST PUSH1 0x0 DUP2 SWAP1 POP SWAP2 SWAP1 POP JUMP JUMPDEST PUSH2 0x14D2 DUP2 PUSH2 0x14BF JUMP JUMPDEST DUP2 EQ PUSH2 0x14DD JUMPI PUSH1 0x0 DUP1 REVERT JUMPDEST POP JUMP JUMPDEST PUSH1 0x0 DUP2 CALLDATALOAD SWAP1 POP PUSH2 0x14EF DUP2 PUSH2 0x14C9 JUMP JUMPDEST SWAP3 SWAP2 POP POP JUMP JUMPDEST PUSH1 0x0 PUSH1 0x20 DUP3 DUP5 SUB SLT ISZERO PUSH2 0x150B JUMPI PUSH2 0x150A PUSH2 0x11FA JUMP JUMPDEST JUMPDEST PUSH1 0x0 PUSH2 0x1519 DUP5 DUP3 DUP6 ADD PUSH2 0x14E0 JUMP JUMPDEST SWAP2 POP POP SWAP3 SWAP2 POP POP JUMP JUMPDEST PUSH2 0x152B DUP2 PUSH2 0x14BF JUMP JUMPDEST DUP3 MSTORE POP POP JUMP JUMPDEST PUSH1 0x0 DUP2 MLOAD SWAP1 POP SWAP2 SWAP1 POP JUMP JUMPDEST PUSH1 0x0 DUP3 DUP3 MSTORE PUSH1 0x20 DUP3 ADD SWAP1 POP SWAP3 SWAP2 POP POP JUMP JUMPDEST PUSH1 0x0 JUMPDEST DUP4 DUP2 LT ISZERO PUSH2 0x156B JUMPI DUP1 DUP3 ADD MLOAD DUP2 DUP5 ADD MSTORE PUSH1 0x20 DUP2 ADD SWAP1 POP PUSH2 0x1550 JUMP JUMPDEST PUSH1 0x0 DUP5 DUP5 ADD MSTORE POP POP POP POP JUMP JUMPDEST PUSH1 0x0 PUSH1 0x1F NOT PUSH1 0x1F DUP4 ADD AND SWAP1 POP SWAP2 SWAP1 POP JUMP JUMPDEST PUSH1 0x0 PUSH2 0x1593 DUP3 PUSH2 0x1531 JUMP JUMPDEST PUSH2 0x159D DUP2 DUP6 PUSH2 0x153C JUMP JUMPDEST SWAP4 POP PUSH2 0x15AD DUP2 DUP6 PUSH1 0x20 DUP7 ADD PUSH2 0x154D JUMP JUMPDEST PUSH2 0x15B6 DUP2 PUSH2 0x1577 JUMP JUMPDEST DUP5 ADD SWAP2 POP POP SWAP3 SWAP2 POP POP JUMP JUMPDEST PUSH32 0x4E487B7100000000000000000000000000000000000000000000000000000000 PUSH1 0x0 MSTORE PUSH1 0x21 PUSH1 0x4 MSTORE PUSH1 0x24 PUSH1 0x0 REVERT JUMPDEST PUSH1 0x4 DUP2 LT PUSH2 0x1601 JUMPI PUSH2 0x1600 PUSH2 0x15C1 JUMP JUMPDEST JUMPDEST POP JUMP JUMPDEST PUSH1 0x0 DUP2 SWAP1 POP PUSH2 0x1612 DUP3 PUSH2 0x15F0 JUMP JUMPDEST SWAP2 SWAP1 POP JUMP JUMPDEST PUSH1 0x0 PUSH2 0x1622 DUP3 PUSH2 0x1604 JUMP JUMPDEST SWAP1 POP SWAP2 SWAP1 POP JUMP JUMPDEST PUSH2 0x1632 DUP2 PUSH2 0x1617 JUMP JUMPDEST DUP3 MSTORE POP POP JUMP JUMPDEST PUSH1 0x0 PUSH1 0xE0 DUP3 ADD SWAP1 POP PUSH2 0x164D PUSH1 0x0 DUP4 ADD DUP11 PUSH2 0x12E0 JUMP JUMPDEST PUSH2 0x165A PUSH1 0x20 DUP4 ADD DUP10 PUSH2 0x1522 JUMP JUMPDEST DUP2 DUP2 SUB PUSH1 0x40 DUP4 ADD MSTORE PUSH2 0x166C DUP2 DUP9 PUSH2 0x1588 JUMP JUMPDEST SWAP1 POP PUSH2 0x167B PUSH1 0x60 DUP4 ADD DUP8 PUSH2 0x138B JUMP JUMPDEST PUSH2 0x1688 PUSH1 0x80 DUP4 ADD DUP7 PUSH2 0x12E0 JUMP JUMPDEST PUSH2 0x1695 PUSH1 0xA0 DUP4 ADD DUP6 PUSH2 0x12E0 JUMP JUMPDEST PUSH2 0x16A2 PUSH1 0xC0 DUP4 ADD DUP5 PUSH2 0x1629 JUMP JUMPDEST SWAP9 SWAP8 POP POP POP POP POP POP POP POP JUMP JUMPDEST PUSH1 0x0 PUSH1 0x20 DUP3 ADD SWAP1 POP PUSH2 0x16C3 PUSH1 0x0 DUP4 ADD DUP5 PUSH2 0x137C JUMP JUMPDEST SWAP3 SWAP2 POP POP JUMP JUMPDEST PUSH1 0x0 PUSH1 0x20 DUP3 ADD SWAP1 POP PUSH2 0x16DE PUSH1 0x0 DUP4 ADD DUP5 PUSH2 0x138B JUMP JUMPDEST SWAP3 SWAP2 POP POP JUMP JUMPDEST PUSH32 0x52616365206E6F74206F70656E00000000000000000000000000000000000000 PUSH1 0x0 DUP3 ADD MSTORE POP JUMP JUMPDEST PUSH1 0x0 PUSH2 0x171A PUSH1 0xD DUP4 PUSH2 0x153C JUMP JUMPDEST SWAP2 POP PUSH2 0x1725 DUP3 PUSH2 0x16E4 JUMP JUMPDEST PUSH1 0x20 DUP3 ADD SWAP1 POP SWAP2 SWAP1 POP JUMP JUMPDEST PUSH1 0x0 PUSH1 0x20 DUP3 ADD SWAP1 POP DUP2 DUP2 SUB PUSH1 0x0 DUP4 ADD MSTORE PUSH2 0x1749 DUP2 PUSH2 0x170D JUMP JUMPDEST SWAP1 POP SWAP2 SWAP1 POP JUMP JUMPDEST PUSH32 0x496E76616C696420686F72736500000000000000000000000000000000000000 PUSH1 0x0 DUP3 ADD MSTORE POP JUMP JUMPDEST PUSH1 0x0 PUSH2 0x1786 PUSH1 0xD DUP4 PUSH2 0x153C JUMP JUMPDEST SWAP2 POP PUSH2 0x1791 DUP3 PUSH2 0x1750 JUMP JUMPDEST PUSH1 0x20 DUP3 ADD SWAP1 POP SWAP2 SWAP1 POP JUMP JUMPDEST PUSH1 0x0 PUSH1 0x20 DUP3 ADD SWAP1 POP DUP2 DUP2 SUB PUSH1 0x0 DUP4 ADD MSTORE PUSH2 0x17B5 DUP2 PUSH2 0x1779 JUMP JUMPDEST SWAP1 POP SWAP2 SWAP1 POP JUMP JUMPDEST PUSH32 0x42657420616D6F756E74206D7573742062652067726561746572207468616E20 PUSH1 0x0 DUP3 ADD MSTORE PUSH32 0x7A65726F00000000000000000000000000000000000000000000000000000000 PUSH1 0x20 DUP3 ADD MSTORE POP JUMP JUMPDEST PUSH1 0x0 PUSH2 0x1818 PUSH1 0x24 DUP4 PUSH2 0x153C JUMP JUMPDEST SWAP2 POP PUSH2 0x1823 DUP3 PUSH2 0x17BC JUMP JUMPDEST PUSH1 0x40 DUP3 ADD SWAP1 POP SWAP2 SWAP1 POP JUMP JUMPDEST PUSH1 0x0 PUSH1 0x20 DUP3 ADD SWAP1 POP DUP2 DUP2 SUB PUSH1 0x0 DUP4 ADD MSTORE PUSH2 0x1847 DUP2 PUSH2 0x180B JUMP JUMPDEST SWAP1 POP SWAP2 SWAP1 POP JUMP JUMPDEST PUSH32 0x4E487B7100000000000000000000000000000000000000000000000000000000 PUSH1 0x0 MSTORE PUSH1 0x11 PUSH1 0x4 MSTORE PUSH1 0x24 PUSH1 0x0 REVERT JUMPDEST PUSH1 0x0 PUSH2 0x1888 DUP3 PUSH2 0x1204 JUMP JUMPDEST SWAP2 POP PUSH2 0x1893 DUP4 PUSH2 0x1204 JUMP JUMPDEST SWAP3 POP DUP3 DUP3 ADD SWAP1 POP DUP1 DUP3 GT ISZERO PUSH2 0x18AB JUMPI PUSH2 0x18AA PUSH2 0x184E JUMP JUMPDEST JUMPDEST SWAP3 SWAP2 POP POP JUMP JUMPDEST PUSH1 0x0 PUSH1 0x40 DUP3 ADD SWAP1 POP PUSH2 0x18C6 PUSH1 0x0 DUP4 ADD DUP6 PUSH2 0x138B JUMP JUMPDEST PUSH2 0x18D3 PUSH1 0x20 DUP4 ADD DUP5 PUSH2 0x12E0 JUMP JUMPDEST SWAP4 SWAP3 POP POP POP JUMP JUMPDEST PUSH32 0x4F6E6C79206F776E657200000000000000000000000000000000000000000000 PUSH1 0x0 DUP3 ADD MSTORE POP JUMP JUMPDEST PUSH1 0x0 PUSH2 0x1910 PUSH1 0xA DUP4 PUSH2 0x153C JUMP JUMPDEST SWAP2 POP PUSH2 0x191B DUP3 PUSH2 0x18DA JUMP JUMPDEST PUSH1 0x20 DUP3 ADD SWAP1 POP SWAP2 SWAP1 POP JUMP JUMPDEST PUSH1 0x0 PUSH1 0x20 DUP3 ADD SWAP1 POP DUP2 DUP2 SUB PUSH1 0x0 DUP4 ADD MSTORE PUSH2 0x193F DUP2 PUSH2 0x1903 JUMP JUMPDEST SWAP1 POP SWAP2 SWAP1 POP JUMP JUMPDEST PUSH32 0x52616365206D75737420626520636C6F73656420666972737400000000000000 PUSH1 0x0 DUP3 ADD MSTORE POP JUMP JUMPDEST PUSH1 0x0 PUSH2 0x197C PUSH1 0x19 DUP4 PUSH2 0x153C JUMP JUMPDEST SWAP2 POP PUSH2 0x1987 DUP3 PUSH2 0x1946 JUMP JUMPDEST PUSH1 0x20 DUP3 ADD SWAP1 POP SWAP2 SWAP1 POP JUMP JUMPDEST PUSH1 0x0 PUSH1 0x20 DUP3 ADD SWAP1 POP DUP2 DUP2 SUB PUSH1 0x0 DUP4 ADD MSTORE PUSH2 0x19AB DUP2 PUSH2 0x196F JUMP JUMPDEST SWAP1 POP SWAP2 SWAP1 POP JUMP JUMPDEST PUSH1 0x0 DUP2 SWAP1 POP SWAP3 SWAP2 POP POP JUMP JUMPDEST DUP3 DUP2 DUP4 CALLDATACOPY PUSH1 0x0 DUP4 DUP4 ADD MSTORE POP POP POP JUMP JUMPDEST PUSH1 0x0 PUSH2 0x19D8 DUP4 DUP6 PUSH2 0x19B2 JUMP JUMPDEST SWAP4 POP PUSH2 0x19E5 DUP4 DUP6 DUP5 PUSH2 0x19BD JUMP JUMPDEST DUP3 DUP5 ADD SWAP1 POP SWAP4 SWAP3 POP POP POP JUMP JUMPDEST PUSH1 0x0 PUSH2 0x19FE DUP3 DUP5 DUP7 PUSH2 0x19CC JUMP JUMPDEST SWAP2 POP DUP2 SWAP1 POP SWAP4 SWAP3 POP POP POP JUMP JUMPDEST PUSH32 0x496E76616C696420736565640000000000000000000000000000000000000000 PUSH1 0x0 DUP3 ADD MSTORE POP JUMP JUMPDEST PUSH1 0x0 PUSH2 0x1A40 PUSH1 0xC DUP4 PUSH2 0x153C JUMP JUMPDEST SWAP2 POP PUSH2 0x1A4B DUP3 PUSH2 0x1A0A JUMP JUMPDEST PUSH1 0x20 DUP3 ADD SWAP1 POP SWAP2 SWAP1 POP JUMP JUMPDEST PUSH1 0x0 PUSH1 0x20 DUP3 ADD SWAP1 POP DUP2 DUP2 SUB PUSH1 0x0 DUP4 ADD MSTORE PUSH2 0x1A6F DUP2 PUSH2 0x1A33 JUMP JUMPDEST SWAP1 POP SWAP2 SWAP1 POP JUMP JUMPDEST PUSH1 0x0 PUSH2 0x1A81 DUP3 PUSH2 0x1204 JUMP JUMPDEST SWAP2 POP PUSH2 0x1A8C DUP4 PUSH2 0x1204 JUMP JUMPDEST SWAP3 POP DUP3 DUP3 SUB SWAP1 POP DUP2 DUP2 GT ISZERO PUSH2 0x1AA4 JUMPI PUSH2 0x1AA3 PUSH2 0x184E JUMP JUMPDEST JUMPDEST SWAP3 SWAP2 POP POP JUMP JUMPDEST PUSH1 0x0 DUP2 SWAP1 POP SWAP2 SWAP1 POP JUMP JUMPDEST PUSH2 0x1AC5 PUSH2 0x1AC0 DUP3 PUSH2 0x14BF JUMP JUMPDEST PUSH2 0x1AAA JUMP JUMPDEST DUP3 MSTORE POP POP JUMP JUMPDEST PUSH1 0x0 DUP2 SWAP1 POP SWAP2 SWAP1 POP JUMP JUMPDEST PUSH2 0x1AE6 PUSH2 0x1AE1 DUP3 PUSH2 0x1204 JUMP JUMPDEST PUSH2 0x1ACB JUMP JUMPDEST DUP3 MSTORE POP POP JUMP JUMPDEST PUSH1 0x0 DUP2 PUSH1 0x60 SHL SWAP1 POP SWAP2 SWAP1 POP JUMP JUMPDEST PUSH1 0x0 PUSH2 0x1B04 DUP3 PUSH2 0x1AEC JUMP JUMPDEST SWAP1 POP SWAP2 SWAP1 POP JUMP JUMPDEST PUSH1 0x0 PUSH2 0x1B16 DUP3 PUSH2 0x1AF9 JUMP JUMPDEST SWAP1 POP SWAP2 SWAP1 POP JUMP JUMPDEST PUSH2 0x1B2E PUSH2 0x1B29 DUP3 PUSH2 0x136A JUMP JUMPDEST PUSH2 0x1B0B JUMP JUMPDEST DUP3 MSTORE POP POP JUMP JUMPDEST PUSH1 0x0 PUSH2 0x1B41 DUP3 DUP8 DUP10 PUSH2 0x19CC JUMP JUMPDEST SWAP2 POP PUSH2 0x1B4D DUP3 DUP7 PUSH2 0x1AB4 JUMP JUMPDEST PUSH1 0x20 DUP3 ADD SWAP2 POP PUSH2 0x1B5D DUP3 DUP6 PUSH2 0x1AD5 JUMP JUMPDEST PUSH1 0x20 DUP3 ADD SWAP2 POP PUSH2 0x1B6D DUP3 DUP5 PUSH2 0x1B1D JUMP JUMPDEST PUSH1 0x14 DUP3 ADD SWAP2 POP DUP2 SWAP1 POP SWAP7 SWAP6 POP POP POP POP POP POP JUMP JUMPDEST PUSH32 0x4E487B7100000000000000000000000000000000000000000000000000000000 PUSH1 0x0 MSTORE PUSH1 0x12 PUSH1 0x4 MSTORE PUSH1 0x24 PUSH1 0x0 REVERT JUMPDEST PUSH1 0x0 PUSH2 0x1BBA DUP3 PUSH2 0x1204 JUMP JUMPDEST SWAP2 POP PUSH2 0x1BC5 DUP4 PUSH2 0x1204 JUMP JUMPDEST SWAP3 POP DUP3 PUSH2 0x1BD5 JUMPI PUSH2 0x1BD4 PUSH2 0x1B80 JUMP JUMPDEST JUMPDEST DUP3 DUP3 MOD SWAP1 POP SWAP3 SWAP2 POP POP JUMP JUMPDEST PUSH1 0x0 DUP3 SWAP1 POP SWAP3 SWAP2 POP POP JUMP JUMPDEST PUSH32 0x4E487B7100000000000000000000000000000000000000000000000000000000 PUSH1 0x0 MSTORE PUSH1 0x41 PUSH1 0x4 MSTORE PUSH1 0x24 PUSH1 0x0 REVERT JUMPDEST PUSH32 0x4E487B7100000000000000000000000000000000000000000000000000000000 PUSH1 0x0 MSTORE PUSH1 0x22 PUSH1 0x4 MSTORE PUSH1 0x24 PUSH1 0x0 REVERT JUMPDEST PUSH1 0x0 PUSH1 0x2 DUP3 DIV SWAP1 POP PUSH1 0x1 DUP3 AND DUP1 PUSH2 0x1C61 JUMPI PUSH1 0x7F DUP3 AND SWAP2 POP JUMPDEST PUSH1 0x20 DUP3 LT DUP2 SUB PUSH2 0x1C74 JUMPI PUSH2 0x1C73 PUSH2 0x1C1A JUMP JUMPDEST JUMPDEST POP SWAP2 SWAP1 POP JUMP JUMPDEST PUSH1 0x0 DUP2 SWAP1 POP DUP2 PUSH1 0x0 MSTORE PUSH1 0x20 PUSH1 0x0 KECCAK256 SWAP1 POP SWAP2 SWAP1 POP JUMP JUMPDEST PUSH1 0x0 PUSH1 0x20 PUSH1 0x1F DUP4 ADD DIV SWAP1 POP SWAP2 SWAP1 POP JUMP JUMPDEST PUSH1 0x0 DUP3 DUP3 SHL SWAP1 POP SWAP3 SWAP2 POP POP JUMP JUMPDEST PUSH1 0x0 PUSH1 0x8 DUP4 MUL PUSH2 0x1CDC PUSH32 0xFFFFFFFFFFFFFFFFFFFFFFFFFFFFFFFFFFFFFFFFFFFFFFFFFFFFFFFFFFFFFFFF DUP3 PUSH2 0x1C9F JUMP JUMPDEST PUSH2 0x1CE6 DUP7 DUP4 PUSH2 0x1C9F JUMP JUMPDEST SWAP6 POP DUP1 NOT DUP5 AND SWAP4 POP DUP1 DUP7 AND DUP5 OR SWAP3 POP POP POP SWAP4 SWAP3 POP POP POP JUMP JUMPDEST PUSH1 0x0 DUP2 SWAP1 POP SWAP2 SWAP1 POP JUMP JUMPDEST PUSH1 0x0 PUSH2 0x1D23 PUSH2 0x1D1E PUSH2 0x1D19 DUP5 PUSH2 0x1204 JUMP JUMPDEST PUSH2 0x1CFE JUMP JUMPDEST PUSH2 0x1204 JUMP JUMPDEST SWAP1 POP SWAP2 SWAP1 POP JUMP JUMPDEST PUSH1 0x0 DUP2 SWAP1 POP SWAP2 SWAP1 POP JUMP JUMPDEST PUSH2 0x1D3D DUP4 PUSH2 0x1D08 JUMP JUMPDEST PUSH2 0x1D51 PUSH2 0x1D49 DUP3 PUSH2 0x1D2A JUMP JUMPDEST DUP5 DUP5 SLOAD PUSH2 0x1CAC JUMP JUMPDEST DUP3 SSTORE POP POP POP POP JUMP JUMPDEST PUSH1 0x0 SWAP1 JUMP JUMPDEST PUSH2 0x1D66 PUSH2 0x1D59 JUMP JUMPDEST PUSH2 0x1D71 DUP2 DUP5 DUP5 PUSH2 0x1D34 JUMP JUMPDEST POP POP POP JUMP JUMPDEST JUMPDEST DUP2 DUP2 LT ISZERO PUSH2 0x1D95 JUMPI PUSH2 0x1D8A PUSH1 0x0 DUP3 PUSH2 0x1D5E JUMP JUMPDEST PUSH1 0x1 DUP2 ADD SWAP1 POP PUSH2 0x1D77 JUMP JUMPDEST POP POP JUMP JUMPDEST PUSH1 0x1F DUP3 GT ISZERO PUSH2 0x1DDA JUMPI PUSH2 0x1DAB DUP2 PUSH2 0x1C7A JUMP JUMPDEST PUSH2 0x1DB4 DUP5 PUSH2 0x1C8F JUMP JUMPDEST DUP2 ADD PUSH1 0x20 DUP6 LT ISZERO PUSH2 0x1DC3 JUMPI DUP2 SWAP1 POP JUMPDEST PUSH2 0x1DD7 PUSH2 0x1DCF DUP6 PUSH2 0x1C8F JUMP JUMPDEST DUP4 ADD DUP3 PUSH2 0x1D76 JUMP JUMPDEST POP POP JUMPDEST POP POP POP JUMP JUMPDEST PUSH1 0x0 DUP3 DUP3 SHR SWAP1 POP SWAP3 SWAP2 POP POP JUMP JUMPDEST PUSH1 0x0 PUSH2 0x1DFD PUSH1 0x0 NOT DUP5 PUSH1 0x8 MUL PUSH2 0x1DDF JUMP JUMPDEST NOT DUP1 DUP4 AND SWAP2 POP POP SWAP3 SWAP2 POP POP JUMP JUMPDEST PUSH1 0x0 PUSH2 0x1E16 DUP4 DUP4 PUSH2 0x1DEC JUMP JUMPDEST SWAP2 POP DUP3 PUSH1 0x2 MUL DUP3 OR SWAP1 POP SWAP3 SWAP2 POP POP JUMP JUMPDEST PUSH2 0x1E30 DUP4 DUP4 PUSH2 0x1BE0 JUMP JUMPDEST PUSH8 0xFFFFFFFFFFFFFFFF DUP2 GT ISZERO PUSH2 0x1E49 JUMPI PUSH2 0x1E48 PUSH2 0x1BEB JUMP JUMPDEST JUMPDEST PUSH2 0x1E53 DUP3 SLOAD PUSH2 0x1C49 JUMP JUMPDEST PUSH2 0x1E5E DUP3 DUP3 DUP6 PUSH2 0x1D99 JUMP JUMPDEST PUSH1 0x0 PUSH1 0x1F DUP4 GT PUSH1 0x1 DUP2 EQ PUSH2 0x1E8D JUMPI PUSH1 0x0 DUP5 ISZERO PUSH2 0x1E7B JUMPI DUP3 DUP8 ADD CALLDATALOAD SWAP1 POP JUMPDEST PUSH2 0x1E85 DUP6 DUP3 PUSH2 0x1E0A JUMP JUMPDEST DUP7 SSTORE POP PUSH2 0x1EED JUMP JUMPDEST PUSH1 0x1F NOT DUP5 AND PUSH2 0x1E9B DUP7 PUSH2 0x1C7A JUMP JUMPDEST PUSH1 0x0 JUMPDEST DUP3 DUP2 LT ISZERO PUSH2 0x1EC3 JUMPI DUP5 DUP10 ADD CALLDATALOAD DUP3 SSTORE PUSH1 0x1 DUP3 ADD SWAP2 POP PUSH1 0x20 DUP6 ADD SWAP5 POP PUSH1 0x20 DUP2 ADD SWAP1 POP PUSH2 0x1E9E JUMP JUMPDEST DUP7 DUP4 LT ISZERO PUSH2 0x1EE0 JUMPI DUP5 DUP10 ADD CALLDATALOAD PUSH2 0x1EDC PUSH1 0x1F DUP10 AND DUP3 PUSH2 0x1DEC JUMP JUMPDEST DUP4 SSTORE POP JUMPDEST PUSH1 0x1 PUSH1 0x2 DUP9 MUL ADD DUP9 SSTORE POP POP POP JUMPDEST POP POP POP POP POP POP POP JUMP JUMPDEST PUSH1 0x0 PUSH2 0x1F02 DUP4 DUP6 PUSH2 0x153C JUMP JUMPDEST SWAP4 POP PUSH2 0x1F0F DUP4 DUP6 DUP5 PUSH2 0x19BD JUMP JUMPDEST PUSH2 0x1F18 DUP4 PUSH2 0x1577 JUMP JUMPDEST DUP5 ADD SWAP1 POP SWAP4 SWAP3 POP POP POP JUMP JUMPDEST PUSH1 0x0 PUSH1 0x40 DUP3 ADD SWAP1 POP PUSH2 0x1F38 PUSH1 0x0 DUP4 ADD DUP7 PUSH2 0x138B JUMP JUMPDEST DUP2 DUP2 SUB PUSH1 0x20 DUP4 ADD MSTORE PUSH2 0x1F4B DUP2 DUP5 DUP7 PUSH2 0x1EF6 JUMP JUMPDEST SWAP1 POP SWAP5 SWAP4 POP POP POP POP JUMP JUMPDEST PUSH1 0x0 PUSH2 0x1F60 DUP3 PUSH2 0x1204 JUMP JUMPDEST SWAP2 POP PUSH32 0xFFFFFFFFFFFFFFFFFFFFFFFFFFFFFFFFFFFFFFFFFFFFFFFFFFFFFFFFFFFFFFFF DUP3 SUB PUSH2 0x1F92 JUMPI PUSH2 0x1F91 PUSH2 0x184E JUMP JUMPDEST JUMPDEST PUSH1 0x1 DUP3 ADD SWAP1 POP SWAP2 SWAP1 POP JUMP JUMPDEST PUSH2 0x1FA6 DUP3 PUSH2 0x1531 JUMP JUMPDEST PUSH8 0xFFFFFFFFFFFFFFFF DUP2 GT ISZERO PUSH2 0x1FBF JUMPI PUSH2 0x1FBE PUSH2 0x1BEB JUMP JUMPDEST JUMPDEST PUSH2 0x1FC9 DUP3 SLOAD PUSH2 0x1C49 JUMP JUMPDEST PUSH2 0x1FD4 DUP3 DUP3 DUP6 PUSH2 0x1D99 JUMP JUMPDEST PUSH1 0x0 PUSH1 0x20 SWAP1 POP PUSH1 0x1F DUP4 GT PUSH1 0x1 DUP2 EQ PUSH2 0x2007 JUMPI PUSH1 0x0 DUP5 ISZERO PUSH2 0x1FF5 JUMPI DUP3 DUP8 ADD MLOAD SWAP1 POP JUMPDEST PUSH2 0x1FFF DUP6 DUP3 PUSH2 0x1E0A JUMP JUMPDEST DUP7 SSTORE POP PUSH2 0x2067 JUMP JUMPDEST PUSH1 0x1F NOT DUP5 AND PUSH2 0x2015 DUP7 PUSH2 0x1C7A JUMP JUMPDEST PUSH1 0x0 JUMPDEST DUP3 DUP2 LT ISZERO PUSH2 0x203D JUMPI DUP5 DUP10 ADD MLOAD DUP3 SSTORE PUSH1 0x1 DUP3 ADD SWAP2 POP PUSH1 0x20 DUP6 ADD SWAP5 POP PUSH1 0x20 DUP2 ADD SWAP1 POP PUSH2 0x2018 JUMP JUMPDEST DUP7 DUP4 LT ISZERO PUSH2 0x205A JUMPI DUP5 DUP10 ADD MLOAD PUSH2 0x2056 PUSH1 0x1F DUP10 AND DUP3 PUSH2 0x1DEC JUMP JUMPDEST DUP4 SSTORE POP JUMPDEST PUSH1 0x1 PUSH1 0x2 DUP9 MUL ADD DUP9 SSTORE POP POP POP JUMPDEST POP POP POP POP POP POP JUMP JUMPDEST PUSH1 0x0 PUSH1 0x20 DUP3 ADD SWAP1 POP PUSH2 0x2084 PUSH1 0x0 DUP4 ADD DUP5 PUSH2 0x1522 JUMP JUMPDEST SWAP3 SWAP2 POP POP JUMP JUMPDEST PUSH32 0x52616365206E6F742066696E6973686564000000000000000000000000000000 PUSH1 0x0 DUP3 ADD MSTORE POP JUMP JUMPDEST PUSH1 0x0 PUSH2 0x20C0 PUSH1 0x11 DUP4 PUSH2 0x153C JUMP JUMPDEST SWAP2 POP PUSH2 0x20CB DUP3 PUSH2 0x208A JUMP JUMPDEST PUSH1 0x20 DUP3 ADD SWAP1 POP SWAP2 SWAP1 POP JUMP JUMPDEST PUSH1 0x0 PUSH1 0x20 DUP3 ADD SWAP1 POP DUP2 DUP2 SUB PUSH1 0x0 DUP4 ADD MSTORE PUSH2 0x20EF DUP2 PUSH2 0x20B3 JUMP JUMPDEST SWAP1 POP SWAP2 SWAP1 POP JUMP JUMPDEST PUSH32 0x496E76616C69642062657420696E646578000000000000000000000000000000 PUSH1 0x0 DUP3 ADD MSTORE POP JUMP JUMPDEST PUSH1 0x0 PUSH2 0x212C PUSH1 0x11 DUP4 PUSH2 0x153C JUMP JUMPDEST SWAP2 POP PUSH2 0x2137 DUP3 PUSH2 0x20F6 JUMP JUMPDEST PUSH1 0x20 DUP3 ADD SWAP1 POP SWAP2 SWAP1 POP JUMP JUMPDEST PUSH1 0x0 PUSH1 0x20 DUP3 ADD SWAP1 POP DUP2 DUP2 SUB PUSH1 0x0 DUP4 ADD MSTORE PUSH2 0x215B DUP2 PUSH2 0x211F JUMP JUMPDEST SWAP1 POP SWAP2 SWAP1 POP JUMP JUMPDEST PUSH32 0x4E487B7100000000000000000000000000000000000000000000000000000000 PUSH1 0x0 MSTORE PUSH1 0x32 PUSH1 0x4 MSTORE PUSH1 0x24 PUSH1 0x0 REVERT JUMPDEST PUSH32 0x4E6F7420796F7572206265740000000000000000000000000000000000000000 PUSH1 0x0 DUP3 ADD MSTORE POP JUMP JUMPDEST PUSH1 0x0 PUSH2 0x21C7 PUSH1 0xC DUP4 PUSH2 0x153C JUMP JUMPDEST SWAP2 POP PUSH2 0x21D2 DUP3 PUSH2 0x2191 JUMP JUMPDEST PUSH1 0x20 DUP3 ADD SWAP1 POP SWAP2 SWAP1 POP JUMP JUMPDEST PUSH1 0x0 PUSH1 0x20 DUP3 ADD SWAP1 POP DUP2 DUP2 SUB PUSH1 0x0 DUP4 ADD MSTORE PUSH2 0x21F6 DUP2 PUSH2 0x21BA JUMP JUMPDEST SWAP1 POP SWAP2 SWAP1 POP JUMP JUMPDEST PUSH32 0x416C726561647920706169640000000000000000000000000000000000000000 PUSH1 0x0 DUP3 ADD MSTORE POP JUMP JUMPDEST PUSH1 0x0 PUSH2 0x2233 PUSH1 0xC DUP4 PUSH2 0x153C JUMP JUMPDEST SWAP2 POP PUSH2 0x223E DUP3 PUSH2 0x21FD JUMP JUMPDEST PUSH1 0x20 DUP3 ADD SWAP1 POP SWAP2 SWAP1 POP JUMP JUMPDEST PUSH1 0x0 PUSH1 0x20 DUP3 ADD SWAP1 POP DUP2 DUP2 SUB PUSH1 0x0 DUP4 ADD MSTORE PUSH2 0x2262 DUP2 PUSH2 0x2226 JUMP JUMPDEST SWAP1 POP SWAP2 SWAP1 POP JUMP JUMPDEST PUSH32 0x42657420646964206E6F742077696E0000000000000000000000000000000000 PUSH1 0x0 DUP3 ADD MSTORE POP JUMP JUMPDEST PUSH1 0x0 PUSH2 0x229F PUSH1 0xF DUP4 PUSH2 0x153C JUMP JUMPDEST SWAP2 POP PUSH2 0x22AA DUP3 PUSH2 0x2269 JUMP JUMPDEST PUSH1 0x20 DUP3 ADD SWAP1 POP SWAP2 SWAP1 POP JUMP JUMPDEST PUSH1 0x0 PUSH1 0x20 DUP3 ADD SWAP1 POP DUP2 DUP2 SUB PUSH1 0x0 DUP4 ADD MSTORE PUSH2 0x22CE DUP2 PUSH2 0x2292 JUMP JUMPDEST SWAP1 POP SWAP2 SWAP1 POP JUMP JUMPDEST PUSH32 0x4E6F2077696E6E696E6720706F6F6C0000000000000000000000000000000000 PUSH1 0x0 DUP3 ADD MSTORE POP JUMP JUMPDEST PUSH1 0x0 PUSH2 0x230B PUSH1 0xF DUP4 PUSH2 0x153C JUMP JUMPDEST SWAP2 POP PUSH2 0x2316 DUP3 PUSH2 0x22D5 JUMP JUMPDEST PUSH1 0x20 DUP3 ADD SWAP1 POP SWAP2 SWAP1 POP JUMP JUMPDEST PUSH1 0x0 PUSH1 0x20 DUP3 ADD SWAP1 POP DUP2 DUP2 SUB PUSH1 0x0 DUP4 ADD MSTORE PUSH2 0x233A DUP2 PUSH2 0x22FE JUMP JUMPDEST SWAP1 POP SWAP2 SWAP1 POP JUMP JUMPDEST PUSH1 0x0 PUSH2 0x234C DUP3 PUSH2 0x1204 JUMP JUMPDEST SWAP2 POP PUSH2 0x2357 DUP4 PUSH2 0x1204 JUMP JUMPDEST SWAP3 POP DUP3 DUP3 MUL PUSH2 0x2365 DUP2 PUSH2 0x1204 JUMP JUMPDEST SWAP2 POP DUP3 DUP3 DIV DUP5 EQ DUP4 ISZERO OR PUSH2 0x237C JUMPI PUSH2 0x237B PUSH2 0x184E JUMP JUMPDEST JUMPDEST POP SWAP3 SWAP2 POP POP JUMP JUMPDEST PUSH1 0x0 PUSH2 0x238E DUP3 PUSH2 0x1204 JUMP JUMPDEST SWAP2 POP PUSH2 0x2399 DUP4 PUSH2 0x1204 JUMP JUMPDEST SWAP3 POP DUP3 PUSH2 0x23A9 JUMPI PUSH2 0x23A8 PUSH2 0x1B80 JUMP JUMPDEST JUMPDEST DUP3 DUP3 DIV SWAP1 POP SWAP3 SWAP2 POP POP JUMP INVALID LOG2 PUSH5 0x6970667358 0x22 SLT KECCAK256 PUSH26 0xCB51C69FF91D2FF506653BC40B48B52BEF1274C1170EC10CEAF 0xEB DUP15 0x4F PUSH10 0x6664736F6C6343000818 STOP CALLER "},"methodIdentifiers":{"HORSE_COUNT()":"b228dbd1","claimPrize(uint256,uint256)":"7b154140","closeRace(uint256)":"96b73a24","createRace(bytes32)":"5154a115","getBetsCount(uint256)":"05c4cb45","getHorsePool(uint256,uint8)":"255cb175","horsePools(uint256,uint8)":"a1cb09c5","owner()":"8da5cb5b","placeBet(uint256,uint8)":"03edf914","raceBets(uint256,uint256)":"27f43c2c","raceCounter()":"710ada35","races(uint256)":"7bbc469e","revealResult(uint256,string)":"317b6346"}}}}}