{
  "_format": "hh-sol-artifact-1",
  "contractName": "HipiPlayRaces",
  "sourceName": "contracts/HipiPlayRaces.sol",
  "abi": [
    {
      "inputs": [],
      "stateMutability": "nonpayable",
      "type": "constructor"
    },
    {
      "anonymous": false,
      "inputs": [
        {
          "indexed": true,
          "internalType": "uint256",
          "name": "raceId",
          "type": "uint256"
        },
        {
          "indexed": true,
          "internalType": "address",
          "name": "player",
          "type": "address"
        },
        {
          "indexed": false,
          "internalType": "uint8",
          "name": "horse",
          "type": "uint8"
        },
        {
          "indexed": false,
          "internalType": "uint256",
          "name": "amount",
          "type": "uint256"
        }
      ],
      "name": "BetPlaced",
      "type": "event"
    },
    {
      "anonymous": false,
      "inputs": [
        {
          "indexed": true,
          "internalType": "uint256",
          "name": "raceId",
          "type": "uint256"
        },
        {
          "indexed": true,
          "internalType": "address",
          "name": "player",
          "type": "address"
        },
        {
          "indexed": false,
          "internalType": "uint256",
          "name": "amount",
          "type": "uint256"
        }
      ],
      "name": "PrizePaid",
      "type": "event"
    },
    {
      "anonymous": false,
      "inputs": [
        {
          "indexed": true,
          "internalType": "uint256",
          "name": "raceId",
          "type": "uint256"
        }
      ],
      "name": "RaceClosed",
      "type": "event"
    },
    {
      "anonymous": false,
      "inputs": [
        {
          "indexed": true,
          "internalType": "uint256",
          "name": "raceId",
          "type": "uint256"
        },
        {
          "indexed": false,
          "internalType": "bytes32",
          "name": "serverSeedHash",
          "type": "bytes32"
        }
      ],
      "name": "RaceCreated",
      "type": "event"
    },
    {
      "anonymous": false,
      "inputs": [
        {
          "indexed": true,
          "internalType": "uint256",
          "name": "raceId",
          "type": "uint256"
        },
        {
          "indexed": false,
          "internalType": "uint8",
          "name": "winningHorse",
          "type": "uint8"
        },
        {
          "indexed": false,
          "internalType": "string",
          "name": "revealedSeed",
          "type": "string"
        }
      ],
      "name": "RaceFinished",
      "type": "event"
    },
    {
      "inputs": [],
      "name": "HORSE_COUNT",
      "outputs": [
        {
          "internalType": "uint8",
          "name": "",
          "type": "uint8"
        }
      ],
      "stateMutability": "view",
      "type": "function"
    },
    {
      "inputs": [
        {
          "internalType": "uint256",
          "name": "raceId",
          "type": "uint256"
        },
        {
          "internalType": "uint256",
          "name": "betIndex",
          "type": "uint256"
        }
      ],
      "name": "claimPrize",
      "outputs": [],
      "stateMutability": "nonpayable",
      "type": "function"
    },
    {
      "inputs": [
        {
          "internalType": "uint256",
          "name": "raceId",
          "type": "uint256"
        }
      ],
      "name": "closeRace",
      "outputs": [],
      "stateMutability": "nonpayable",
      "type": "function"
    },
    {
      "inputs": [
        {
          "internalType": "bytes32",
          "name": "serverSeedHash",
          "type": "bytes32"
        }
      ],
      "name": "createRace",
      "outputs": [],
      "stateMutability": "nonpayable",
      "type": "function"
    },
    {
      "inputs": [
        {
          "internalType": "uint256",
          "name": "raceId",
          "type": "uint256"
        }
      ],
      "name": "getBetsCount",
      "outputs": [
        {
          "internalType": "uint256",
          "name": "",
          "type": "uint256"
        }
      ],
      "stateMutability": "view",
      "type": "function"
    },
    {
      "inputs": [
        {
          "internalType": "uint256",
          "name": "raceId",
          "type": "uint256"
        },
        {
          "internalType": "uint8",
          "name": "horse",
          "type": "uint8"
        }
      ],
      "name": "getHorsePool",
      "outputs": [
        {
          "internalType": "uint256",
          "name": "",
          "type": "uint256"
        }
      ],
      "stateMutability": "view",
      "type": "function"
    },
    {
      "inputs": [
        {
          "internalType": "uint256",
          "name": "",
          "type": "uint256"
        },
        {
          "internalType": "uint8",
          "name": "",
          "type": "uint8"
        }
      ],
      "name": "horsePools",
      "outputs": [
        {
          "internalType": "uint256",
          "name": "",
          "type": "uint256"
        }
      ],
      "stateMutability": "view",
      "type": "function"
    },
    {
      "inputs": [],
      "name": "owner",
      "outputs": [
        {
          "internalType": "address",
          "name": "",
          "type": "address"
        }
      ],
      "stateMutability": "view",
      "type": "function"
    },
    {
      "inputs": [
        {
          "internalType": "uint256",
          "name": "raceId",
          "type": "uint256"
        },
        {
          "internalType": "uint8",
          "name": "horse",
          "type": "uint8"
        }
      ],
      "name": "placeBet",
      "outputs": [],
      "stateMutability": "payable",
      "type": "function"
    },
    {
      "inputs": [
        {
          "internalType": "uint256",
          "name": "",
          "type": "uint256"
        },
        {
          "internalType": "uint256",
          "name": "",
          "type": "uint256"
        }
      ],
      "name": "raceBets",
      "outputs": [
        {
          "internalType": "address",
          "name": "player",
          "type": "address"
        },
        {
          "internalType": "uint8",
          "name": "horse",
          "type": "uint8"
        },
        {
          "internalType": "uint256",
          "name": "amount",
          "type": "uint256"
        },
        {
          "internalType": "bool",
          "name": "paid",
          "type": "bool"
        }
      ],
      "stateMutability": "view",
      "type": "function"
    },
    {
      "inputs": [],
      "name": "raceCounter",
      "outputs": [
        {
          "internalType": "uint256",
          "name": "",
          "type": "uint256"
        }
      ],
      "stateMutability": "view",
      "type": "function"
    },
    {
      "inputs": [
        {
          "internalType": "uint256",
          "name": "",
          "type": "uint256"
        }
      ],
      "name": "races",
      "outputs": [
        {
          "internalType": "uint256",
          "name": "id",
          "type": "uint256"
        },
        {
          "internalType": "bytes32",
          "name": "serverSeedHash",
          "type": "bytes32"
        },
        {
          "internalType": "string",
          "name": "revealedSeed",
          "type": "string"
        },
        {
          "internalType": "uint8",
          "name": "winningHorse",
          "type": "uint8"
        },
        {
          "internalType": "uint256",
          "name": "totalPool",
          "type": "uint256"
        },
        {
          "internalType": "uint256",
          "name": "totalWinningPool",
          "type": "uint256"
        },
        {
          "internalType": "enum HipiPlayRaces.RaceStatus",
          "name": "status",
          "type": "uint8"
        }
      ],
      "stateMutability": "view",
      "type": "function"
    },
    {
      "inputs": [
        {
          "internalType": "uint256",
          "name": "raceId",
          "type": "uint256"
        },
        {
          "internalType": "string",
          "name": "serverSeed",
          "type": "string"
        }
      ],
      "name": "revealResult",
      "outputs": [],
      "stateMutability": "nonpayable",
      "type": "function"
    }
  ],
  "bytecode": "0x608060405234801561001057600080fd5b50336000806101000a81548173ffffffffffffffffffffffffffffffffffffffff021916908373ffffffffffffffffffffffffffffffffffffffff1602179055506123ea806100606000396000f3fe6080604052600436106100c25760003560e01c8063710ada351161007f5780638da5cb5b116100595780638da5cb5b1461028657806396b73a24146102b1578063a1cb09c5146102da578063b228dbd114610317576100c2565b8063710ada35146101ef5780637b1541401461021a5780637bbc469e14610243576100c2565b806303edf914146100c757806305c4cb45146100e3578063255cb1751461012057806327f43c2c1461015d578063317b63461461019d5780635154a115146101c6575b600080fd5b6100e160048036038101906100dc9190611273565b610342565b005b3480156100ef57600080fd5b5061010a600480360381019061010591906112b3565b61062d565b60405161011791906112ef565b60405180910390f35b34801561012c57600080fd5b5061014760048036038101906101429190611273565b61064d565b60405161015491906112ef565b60405180910390f35b34801561016957600080fd5b50610184600480360381019061017f919061130a565b610682565b60405161019494939291906113b5565b60405180910390f35b3480156101a957600080fd5b506101c460048036038101906101bf919061145f565b610709565b005b3480156101d257600080fd5b506101ed60048036038101906101e891906114f5565b6109cc565b005b3480156101fb57600080fd5b50610204610bb3565b60405161021191906112ef565b60405180910390f35b34801561022657600080fd5b50610241600480360381019061023c919061130a565b610bb9565b005b34801561024f57600080fd5b5061026a600480360381019061026591906112b3565b610f4d565b60405161027d9796959493929190611638565b60405180910390f35b34801561029257600080fd5b5061029b611031565b6040516102a891906116ae565b60405180910390f35b3480156102bd57600080fd5b506102d860048036038101906102d391906112b3565b611055565b005b3480156102e657600080fd5b5061030160048036038101906102fc9190611273565b6111d0565b60405161030e91906112ef565b60405180910390f35b34801561032357600080fd5b5061032c6111f5565b60405161033991906116c9565b60405180910390f35b60006002600084815260200190815260200160002090506000600381111561036d5761036c6115c1565b5b8160060160009054906101000a900460ff166003811115610391576103906115c1565b5b146103d1576040517f08c379a00000000000000000000000000000000000000000000000000000000081526004016103c890611730565b60405180910390fd5b60018260ff16101580156103ec5750600660ff168260ff1611155b61042b576040517f08c379a00000000000000000000000000000000000000000000000000000000081526004016104229061179c565b60405180910390fd5b6000341161046e576040517f08c379a00000000000000000000000000000000000000000000000000000000081526004016104659061182e565b60405180910390fd5b6003600084815260200190815260200160002060405180608001604052803373ffffffffffffffffffffffffffffffffffffffff1681526020018460ff16815260200134815260200160001515815250908060018154018082558091505060019003906000526020600020906003020160009091909190915060008201518160000160006101000a81548173ffffffffffffffffffffffffffffffffffffffff021916908373ffffffffffffffffffffffffffffffffffffffff16021790555060208201518160000160146101000a81548160ff021916908360ff1602179055506040820151816001015560608201518160020160006101000a81548160ff02191690831515021790555050503481600401600082825461058f919061187d565b92505081905550346004600085815260200190815260200160002060008460ff1660ff16815260200190815260200160002060008282546105d0919061187d565b925050819055503373ffffffffffffffffffffffffffffffffffffffff16837f4f1eed5e863a822b0f9eb960dfdab2cc5a99beec4b191f2a7a9c7e28e5a1552484346040516106209291906118b1565b60405180910390a3505050565b600060036000838152602001908152602001600020805490509050919050565b60006004600084815260200190815260200160002060008360ff1660ff16815260200190815260200160002054905092915050565b6003602052816000526040600020818154811061069e57600080fd5b9060005260206000209060030201600091509150508060000160009054906101000a900473ffffffffffffffffffffffffffffffffffffffff16908060000160149054906101000a900460ff16908060010154908060020160009054906101000a900460ff16905084565b60008054906101000a900473ffffffffffffffffffffffffffffffffffffffff1673ffffffffffffffffffffffffffffffffffffffff163373ffffffffffffffffffffffffffffffffffffffff1614610797576040517f08c379a000000000000000000000000000000000000000000000000000000000815260040161078e90611926565b60405180910390fd5b6000600260008581526020019081526020016000209050600160038111156107c2576107c16115c1565b5b8160060160009054906101000a900460ff1660038111156107e6576107e56115c1565b5b14610826576040517f08c379a000000000000000000000000000000000000000000000000000000000815260040161081d90611992565b60405180910390fd5b8060010154838360405160200161083e9291906119f1565b6040516020818303038152906040528051906020012014610894576040517f08c379a000000000000000000000000000000000000000000000000000000000815260040161088b90611a56565b60405180910390fd5b600083836001436108a59190611a76565b4087306040516020016108bc959493929190611b34565b6040516020818303038152906040528051906020012060001c905060006001600660ff16836108eb9190611baf565b6108f5919061187d565b9050848484600201918261090a929190611e26565b50808360030160006101000a81548160ff021916908360ff1602179055506004600087815260200190815260200160002060008260ff1660ff16815260200190815260200160002054836005018190555060028360060160006101000a81548160ff02191690836003811115610983576109826115c1565b5b0217905550857f8b7cadd1e328fea586ad5ad6e0889ca11d45a91747055764d3b64fc104b0565e8287876040516109bc93929190611f23565b60405180910390a2505050505050565b60008054906101000a900473ffffffffffffffffffffffffffffffffffffffff1673ffffffffffffffffffffffffffffffffffffffff163373ffffffffffffffffffffffffffffffffffffffff1614610a5a576040517f08c379a0000000000000000000000000000000000000000000000000000000008152600401610a5190611926565b60405180910390fd5b60016000815480929190610a6d90611f55565b91905055506040518060e001604052806001548152602001828152602001604051806020016040528060008152508152602001600060ff168152602001600081526020016000815260200160006003811115610acc57610acb6115c1565b5b81525060026000600154815260200190815260200160002060008201518160000155602082015181600101556040820151816002019081610b0d9190611f9d565b5060608201518160030160006101000a81548160ff021916908360ff1602179055506080820151816004015560a0820151816005015560c08201518160060160006101000a81548160ff02191690836003811115610b6e57610b6d6115c1565b5b02179055509050506001547f215b332c4ee316db2a99709bda321c424fb0661b3c9c4c108b1cb2199f86274982604051610ba8919061206f565b60405180910390a250565b60015481565b600060026000848152602001908152602001600020905060026003811115610be457610be36115c1565b5b8160060160009054906101000a900460ff166003811115610c0857610c076115c1565b5b14610c48576040517f08c379a0000000000000000000000000000000000000000000000000000000008152600401610c3f906120d6565b60405180910390fd5b60036000848152602001908152602001600020805490508210610ca0576040517f08c379a0000000000000000000000000000000000000000000000000000000008152600401610c9790612142565b60405180910390fd5b6000600360008581526020019081526020016000208381548110610cc757610cc6612162565b5b906000526020600020906003020190503373ffffffffffffffffffffffffffffffffffffffff168160000160009054906101000a900473ffffffffffffffffffffffffffffffffffffffff1673ffffffffffffffffffffffffffffffffffffffff1614610d69576040517f08c379a0000000000000000000000000000000000000000000000000000000008152600401610d60906121dd565b60405180910390fd5b8060020160009054906101000a900460ff1615610dbb576040517f08c379a0000000000000000000000000000000000000000000000000000000008152600401610db290612249565b60405180910390fd5b8160030160009054906101000a900460ff1660ff168160000160149054906101000a900460ff1660ff1614610e25576040517f08c379a0000000000000000000000000000000000000000000000000000000008152600401610e1c906122b5565b60405180910390fd5b6000826005015411610e6c576040517f08c379a0000000000000000000000000000000000000000000000000000000008152600401610e6390612321565b60405180910390fd5b6000826005015483600401548360010154610e879190612341565b610e919190612383565b905060018260020160006101000a81548160ff0219169083151502179055503373ffffffffffffffffffffffffffffffffffffffff166108fc829081150290604051600060405180830381858888f19350505050158015610ef6573d6000803e3d6000fd5b503373ffffffffffffffffffffffffffffffffffffffff16857ffcf35a3fc019052976cdcd0cd1a67217972ee331e0b9bf6a37f2fddfa276a01483604051610f3e91906112ef565b60405180910390a35050505050565b6002602052806000526040600020600091509050806000015490806001015490806002018054610f7c90611c49565b80601f0160208091040260200160405190810160405280929190818152602001828054610fa890611c49565b8015610ff55780601f10610fca57610100808354040283529160200191610ff5565b820191906000526020600020905b815481529060010190602001808311610fd857829003601f168201915b5050505050908060030160009054906101000a900460ff16908060040154908060050154908060060160009054906101000a900460ff16905087565b60008054906101000a900473ffffffffffffffffffffffffffffffffffffffff1681565b60008054906101000a900473ffffffffffffffffffffffffffffffffffffffff1673ffffffffffffffffffffffffffffffffffffffff163373ffffffffffffffffffffffffffffffffffffffff16146110e3576040517f08c379a00000000000000000000000000000000000000000000000000000000081526004016110da90611926565b60405180910390fd5b60006002600083815260200190815260200160002090506000600381111561110e5761110d6115c1565b5b8160060160009054906101000a900460ff166003811115611132576111316115c1565b5b14611172576040517f08c379a000000000000000000000000000000000000000000000000000000000815260040161116990611730565b60405180910390fd5b60018160060160006101000a81548160ff0219169083600381111561119a576111996115c1565b5b0217905550817f18817071bb121c258d6cbd7bb3729e2f3847ca88a7f7dbf5995fd78c5b5e618460405160405180910390a25050565b6004602052816000526040600020602052806000526040600020600091509150505481565b600681565b600080fd5b600080fd5b6000819050919050565b61121781611204565b811461122257600080fd5b50565b6000813590506112348161120e565b92915050565b600060ff82169050919050565b6112508161123a565b811461125b57600080fd5b50565b60008135905061126d81611247565b92915050565b6000806040838503121561128a576112896111fa565b5b600061129885828601611225565b92505060206112a98582860161125e565b9150509250929050565b6000602082840312156112c9576112c86111fa565b5b60006112d784828501611225565b91505092915050565b6112e981611204565b82525050565b600060208201905061130460008301846112e0565b92915050565b60008060408385031215611321576113206111fa565b5b600061132f85828601611225565b925050602061134085828601611225565b9150509250929050565b600073ffffffffffffffffffffffffffffffffffffffff82169050919050565b60006113758261134a565b9050919050565b6113858161136a565b82525050565b6113948161123a565b82525050565b60008115159050919050565b6113af8161139a565b82525050565b60006080820190506113ca600083018761137c565b6113d7602083018661138b565b6113e460408301856112e0565b6113f160608301846113a6565b95945050505050565b600080fd5b600080fd5b600080fd5b60008083601f84011261141f5761141e6113fa565b5b8235905067ffffffffffffffff81111561143c5761143b6113ff565b5b60208301915083600182028301111561145857611457611404565b5b9250929050565b600080600060408486031215611478576114776111fa565b5b600061148686828701611225565b935050602084013567ffffffffffffffff8111156114a7576114a66111ff565b5b6114b386828701611409565b92509250509250925092565b6000819050919050565b6114d2816114bf565b81146114dd57600080fd5b50565b6000813590506114ef816114c9565b92915050565b60006020828403121561150b5761150a6111fa565b5b6000611519848285016114e0565b91505092915050565b61152b816114bf565b82525050565b600081519050919050565b600082825260208201905092915050565b60005b8381101561156b578082015181840152602081019050611550565b60008484015250505050565b6000601f19601f8301169050919050565b600061159382611531565b61159d818561153c565b93506115ad81856020860161154d565b6115b681611577565b840191505092915050565b7f4e487b7100000000000000000000000000000000000000000000000000000000600052602160045260246000fd5b60048110611601576116006115c1565b5b50565b6000819050611612826115f0565b919050565b600061162282611604565b9050919050565b61163281611617565b82525050565b600060e08201905061164d600083018a6112e0565b61165a6020830189611522565b818103604083015261166c8188611588565b905061167b606083018761138b565b61168860808301866112e0565b61169560a08301856112e0565b6116a260c0830184611629565b98975050505050505050565b60006020820190506116c3600083018461137c565b92915050565b60006020820190506116de600083018461138b565b92915050565b7f52616365206e6f74206f70656e00000000000000000000000000000000000000600082015250565b600061171a600d8361153c565b9150611725826116e4565b602082019050919050565b600060208201905081810360008301526117498161170d565b9050919050565b7f496e76616c696420686f72736500000000000000000000000000000000000000600082015250565b6000611786600d8361153c565b915061179182611750565b602082019050919050565b600060208201905081810360008301526117b581611779565b9050919050565b7f42657420616d6f756e74206d7573742062652067726561746572207468616e2060008201527f7a65726f00000000000000000000000000000000000000000000000000000000602082015250565b600061181860248361153c565b9150611823826117bc565b604082019050919050565b600060208201905081810360008301526118478161180b565b9050919050565b7f4e487b7100000000000000000000000000000000000000000000000000000000600052601160045260246000fd5b600061188882611204565b915061189383611204565b92508282019050808211156118ab576118aa61184e565b5b92915050565b60006040820190506118c6600083018561138b565b6118d360208301846112e0565b9392505050565b7f4f6e6c79206f776e657200000000000000000000000000000000000000000000600082015250565b6000611910600a8361153c565b915061191b826118da565b602082019050919050565b6000602082019050818103600083015261193f81611903565b9050919050565b7f52616365206d75737420626520636c6f73656420666972737400000000000000600082015250565b600061197c60198361153c565b915061198782611946565b602082019050919050565b600060208201905081810360008301526119ab8161196f565b9050919050565b600081905092915050565b82818337600083830152505050565b60006119d883856119b2565b93506119e58385846119bd565b82840190509392505050565b60006119fe8284866119cc565b91508190509392505050565b7f496e76616c696420736565640000000000000000000000000000000000000000600082015250565b6000611a40600c8361153c565b9150611a4b82611a0a565b602082019050919050565b60006020820190508181036000830152611a6f81611a33565b9050919050565b6000611a8182611204565b9150611a8c83611204565b9250828203905081811115611aa457611aa361184e565b5b92915050565b6000819050919050565b611ac5611ac0826114bf565b611aaa565b82525050565b6000819050919050565b611ae6611ae182611204565b611acb565b82525050565b60008160601b9050919050565b6000611b0482611aec565b9050919050565b6000611b1682611af9565b9050919050565b611b2e611b298261136a565b611b0b565b82525050565b6000611b418287896119cc565b9150611b4d8286611ab4565b602082019150611b5d8285611ad5565b602082019150611b6d8284611b1d565b6014820191508190509695505050505050565b7f4e487b7100000000000000000000000000000000000000000000000000000000600052601260045260246000fd5b6000611bba82611204565b9150611bc583611204565b925082611bd557611bd4611b80565b5b828206905092915050565b600082905092915050565b7f4e487b7100000000000000000000000000000000000000000000000000000000600052604160045260246000fd5b7f4e487b7100000000000000000000000000000000000000000000000000000000600052602260045260246000fd5b60006002820490506001821680611c6157607f821691505b602082108103611c7457611c73611c1a565b5b50919050565b60008190508160005260206000209050919050565b60006020601f8301049050919050565b600082821b905092915050565b600060088302611cdc7fffffffffffffffffffffffffffffffffffffffffffffffffffffffffffffffff82611c9f565b611ce68683611c9f565b95508019841693508086168417925050509392505050565b6000819050919050565b6000611d23611d1e611d1984611204565b611cfe565b611204565b9050919050565b6000819050919050565b611d3d83611d08565b611d51611d4982611d2a565b848454611cac565b825550505050565b600090565b611d66611d59565b611d71818484611d34565b505050565b5b81811015611d9557611d8a600082611d5e565b600181019050611d77565b5050565b601f821115611dda57611dab81611c7a565b611db484611c8f565b81016020851015611dc3578190505b611dd7611dcf85611c8f565b830182611d76565b50505b505050565b600082821c905092915050565b6000611dfd60001984600802611ddf565b1980831691505092915050565b6000611e168383611dec565b9150826002028217905092915050565b611e308383611be0565b67ffffffffffffffff811115611e4957611e48611beb565b5b611e538254611c49565b611e5e828285611d99565b6000601f831160018114611e8d5760008415611e7b578287013590505b611e858582611e0a565b865550611eed565b601f198416611e9b86611c7a565b60005b82811015611ec357848901358255600182019150602085019450602081019050611e9e565b86831015611ee05784890135611edc601f891682611dec565b8355505b6001600288020188555050505b50505050505050565b6000611f02838561153c565b9350611f0f8385846119bd565b611f1883611577565b840190509392505050565b6000604082019050611f38600083018661138b565b8181036020830152611f4b818486611ef6565b9050949350505050565b6000611f6082611204565b91507fffffffffffffffffffffffffffffffffffffffffffffffffffffffffffffffff8203611f9257611f9161184e565b5b600182019050919050565b611fa682611531565b67ffffffffffffffff811115611fbf57611fbe611beb565b5b611fc98254611c49565b611fd4828285611d99565b600060209050601f8311600181146120075760008415611ff5578287015190505b611fff8582611e0a565b865550612067565b601f19841661201586611c7a565b60005b8281101561203d57848901518255600182019150602085019450602081019050612018565b8683101561205a5784890151612056601f891682611dec565b8355505b6001600288020188555050505b505050505050565b60006020820190506120846000830184611522565b92915050565b7f52616365206e6f742066696e6973686564000000000000000000000000000000600082015250565b60006120c060118361153c565b91506120cb8261208a565b602082019050919050565b600060208201905081810360008301526120ef816120b3565b9050919050565b7f496e76616c69642062657420696e646578000000000000000000000000000000600082015250565b600061212c60118361153c565b9150612137826120f6565b602082019050919050565b6000602082019050818103600083015261215b8161211f565b9050919050565b7f4e487b7100000000000000000000000000000000000000000000000000000000600052603260045260246000fd5b7f4e6f7420796f7572206265740000000000000000000000000000000000000000600082015250565b60006121c7600c8361153c565b91506121d282612191565b602082019050919050565b600060208201905081810360008301526121f6816121ba565b9050919050565b7f416c726561647920706169640000000000000000000000000000000000000000600082015250565b6000612233600c8361153c565b915061223e826121fd565b602082019050919050565b6000602082019050818103600083015261226281612226565b9050919050565b7f42657420646964206e6f742077696e0000000000000000000000000000000000600082015250565b600061229f600f8361153c565b91506122aa82612269565b602082019050919050565b600060208201905081810360008301526122ce81612292565b9050919050565b7f4e6f2077696e6e696e6720706f6f6c0000000000000000000000000000000000600082015250565b600061230b600f8361153c565b9150612316826122d5565b602082019050919050565b6000602082019050818103600083015261233a816122fe565b9050919050565b600061234c82611204565b915061235783611204565b925082820261236581611204565b9150828204841483151761237c5761237b61184e565b5b5092915050565b600061238e82611204565b915061239983611204565b9250826123a9576123a8611b80565b5b82820490509291505056fea2646970667358221220790cb51c69ff91d2ff506653bc40b48b52bef1274c1170ec10ceafeb8e4f696664736f6c63430008180033",
  "linkReferences": {},
  "deployedLinkReferences": {}
}