{
  "_format": "hh-sol-artifact-1",
  "contractName": "HorseAuditRegistry",
  "sourceName": "contracts/HorseAuditRegistry.sol",
  "abi": [
    {
      "inputs": [],
      "stateMutability": "nonpayable",
      "type": "constructor"
    },
    {
      "anonymous": false,
      "inputs": [
        {
          "indexed": true,
          "internalType": "uint256",
          "name": "index",
          "type": "uint256"
        },
        {
          "indexed": false,
          "internalType": "string",
          "name": "eventType",
          "type": "string"
        },
        {
          "indexed": false,
          "internalType": "string",
          "name": "eventId",
          "type": "string"
        },
        {
          "indexed": false,
          "internalType": "bytes32",
          "name": "chainHash",
          "type": "bytes32"
        }
      ],
      "name": "AuditStored",
      "type": "event"
    },
    {
      "inputs": [
        {
          "internalType": "bytes32",
          "name": "",
          "type": "bytes32"
        }
      ],
      "name": "exists",
      "outputs": [
        {
          "internalType": "bool",
          "name": "",
          "type": "bool"
        }
      ],
      "stateMutability": "view",
      "type": "function"
    },
    {
      "inputs": [],
      "name": "owner",
      "outputs": [
        {
          "internalType": "address",
          "name": "",
          "type": "address"
        }
      ],
      "stateMutability": "view",
      "type": "function"
    },
    {
      "inputs": [
        {
          "internalType": "uint256",
          "name": "",
          "type": "uint256"
        }
      ],
      "name": "records",
      "outputs": [
        {
          "internalType": "string",
          "name": "eventType",
          "type": "string"
        },
        {
          "internalType": "string",
          "name": "eventId",
          "type": "string"
        },
        {
          "internalType": "bytes32",
          "name": "payloadHash",
          "type": "bytes32"
        },
        {
          "internalType": "bytes32",
          "name": "previousHash",
          "type": "bytes32"
        },
        {
          "internalType": "bytes32",
          "name": "chainHash",
          "type": "bytes32"
        },
        {
          "internalType": "uint256",
          "name": "timestamp",
          "type": "uint256"
        }
      ],
      "stateMutability": "view",
      "type": "function"
    },
    {
      "inputs": [
        {
          "internalType": "string",
          "name": "eventType",
          "type": "string"
        },
        {
          "internalType": "string",
          "name": "eventId",
          "type": "string"
        },
        {
          "internalType": "bytes32",
          "name": "payloadHash",
          "type": "bytes32"
        },
        {
          "internalType": "bytes32",
          "name": "previousHash",
          "type": "bytes32"
        },
        {
          "internalType": "bytes32",
          "name": "chainHash",
          "type": "bytes32"
        }
      ],
      "name": "storeAudit",
      "outputs": [],
      "stateMutability": "nonpayable",
      "type": "function"
    },
    {
      "inputs": [],
      "name": "totalRecords",
      "outputs": [
        {
          "internalType": "uint256",
          "name": "",
          "type": "uint256"
        }
      ],
      "stateMutability": "view",
      "type": "function"
    }
  ],
  "bytecode": "0x608060405234801561001057600080fd5b50336000806101000a81548173ffffffffffffffffffffffffffffffffffffffff021916908373ffffffffffffffffffffffffffffffffffffffff160217905550610e2e806100606000396000f3fe608060405234801561001057600080fd5b50600436106100575760003560e01c8063125f89741461005c578063344610671461007a57806338a699a4146100af5780638da5cb5b146100df578063d2d91b6b146100fd575b600080fd5b610064610119565b6040516100719190610589565b60405180910390f35b610094600480360381019061008f91906105da565b610126565b6040516100a6969594939291906106b0565b60405180910390f35b6100c960048036038101906100c4919061074b565b610282565b6040516100d69190610793565b60405180910390f35b6100e76102a2565b6040516100f491906107ef565b60405180910390f35b6101176004803603810190610112919061086f565b6102c6565b005b6000600180549050905090565b6001818154811061013657600080fd5b90600052602060002090600602016000915090508060000180546101599061095a565b80601f01602080910402602001604051908101604052809291908181526020018280546101859061095a565b80156101d25780601f106101a7576101008083540402835291602001916101d2565b820191906000526020600020905b8154815290600101906020018083116101b557829003601f168201915b5050505050908060010180546101e79061095a565b80601f01602080910402602001604051908101604052809291908181526020018280546102139061095a565b80156102605780601f1061023557610100808354040283529160200191610260565b820191906000526020600020905b81548152906001019060200180831161024357829003601f168201915b5050505050908060020154908060030154908060040154908060050154905086565b60026020528060005260406000206000915054906101000a900460ff1681565b60008054906101000a900473ffffffffffffffffffffffffffffffffffffffff1681565b60008054906101000a900473ffffffffffffffffffffffffffffffffffffffff1673ffffffffffffffffffffffffffffffffffffffff163373ffffffffffffffffffffffffffffffffffffffff1614610354576040517f08c379a000000000000000000000000000000000000000000000000000000000815260040161034b906109d7565b60405180910390fd5b6002600082815260200190815260200160002060009054906101000a900460ff16156103b5576040517f08c379a00000000000000000000000000000000000000000000000000000000081526004016103ac90610a43565b60405180910390fd5b60016040518060c0016040528089898080601f016020809104026020016040519081016040528093929190818152602001838380828437600081840152601f19601f82011690508083019250505050505050815260200187878080601f016020809104026020016040519081016040528093929190818152602001838380828437600081840152601f19601f82011690508083019250505050505050815260200185815260200184815260200183815260200142815250908060018154018082558091505060019003906000526020600020906006020160009091909190915060008201518160000190816104aa9190610c3e565b5060208201518160010190816104c09190610c3e565b5060408201518160020155606082015181600301556080820151816004015560a08201518160050155505060016002600083815260200190815260200160002060006101000a81548160ff021916908315150217905550600180805490506105289190610d3f565b7f3a377f12c1addcaba8b679af378ba52193e574a1535c65b2186612ec5687221d888888888660405161055f959493929190610daf565b60405180910390a250505050505050565b6000819050919050565b61058381610570565b82525050565b600060208201905061059e600083018461057a565b92915050565b600080fd5b600080fd5b6105b781610570565b81146105c257600080fd5b50565b6000813590506105d4816105ae565b92915050565b6000602082840312156105f0576105ef6105a4565b5b60006105fe848285016105c5565b91505092915050565b600081519050919050565b600082825260208201905092915050565b60005b83811015610641578082015181840152602081019050610626565b60008484015250505050565b6000601f19601f8301169050919050565b600061066982610607565b6106738185610612565b9350610683818560208601610623565b61068c8161064d565b840191505092915050565b6000819050919050565b6106aa81610697565b82525050565b600060c08201905081810360008301526106ca818961065e565b905081810360208301526106de818861065e565b90506106ed60408301876106a1565b6106fa60608301866106a1565b61070760808301856106a1565b61071460a083018461057a565b979650505050505050565b61072881610697565b811461073357600080fd5b50565b6000813590506107458161071f565b92915050565b600060208284031215610761576107606105a4565b5b600061076f84828501610736565b91505092915050565b60008115159050919050565b61078d81610778565b82525050565b60006020820190506107a86000830184610784565b92915050565b600073ffffffffffffffffffffffffffffffffffffffff82169050919050565b60006107d9826107ae565b9050919050565b6107e9816107ce565b82525050565b600060208201905061080460008301846107e0565b92915050565b600080fd5b600080fd5b600080fd5b60008083601f84011261082f5761082e61080a565b5b8235905067ffffffffffffffff81111561084c5761084b61080f565b5b60208301915083600182028301111561086857610867610814565b5b9250929050565b600080600080600080600060a0888a03121561088e5761088d6105a4565b5b600088013567ffffffffffffffff8111156108ac576108ab6105a9565b5b6108b88a828b01610819565b9750975050602088013567ffffffffffffffff8111156108db576108da6105a9565b5b6108e78a828b01610819565b955095505060406108fa8a828b01610736565b935050606061090b8a828b01610736565b925050608061091c8a828b01610736565b91505092959891949750929550565b7f4e487b7100000000000000000000000000000000000000000000000000000000600052602260045260246000fd5b6000600282049050600182168061097257607f821691505b6020821081036109855761098461092b565b5b50919050565b7f6e6f74206f776e65720000000000000000000000000000000000000000000000600082015250565b60006109c1600983610612565b91506109cc8261098b565b602082019050919050565b600060208201905081810360008301526109f0816109b4565b9050919050565b7f6175646974206578697374730000000000000000000000000000000000000000600082015250565b6000610a2d600c83610612565b9150610a38826109f7565b602082019050919050565b60006020820190508181036000830152610a5c81610a20565b9050919050565b7f4e487b7100000000000000000000000000000000000000000000000000000000600052604160045260246000fd5b60008190508160005260206000209050919050565b60006020601f8301049050919050565b600082821b905092915050565b600060088302610af47fffffffffffffffffffffffffffffffffffffffffffffffffffffffffffffffff82610ab7565b610afe8683610ab7565b95508019841693508086168417925050509392505050565b6000819050919050565b6000610b3b610b36610b3184610570565b610b16565b610570565b9050919050565b6000819050919050565b610b5583610b20565b610b69610b6182610b42565b848454610ac4565b825550505050565b600090565b610b7e610b71565b610b89818484610b4c565b505050565b5b81811015610bad57610ba2600082610b76565b600181019050610b8f565b5050565b601f821115610bf257610bc381610a92565b610bcc84610aa7565b81016020851015610bdb578190505b610bef610be785610aa7565b830182610b8e565b50505b505050565b600082821c905092915050565b6000610c1560001984600802610bf7565b1980831691505092915050565b6000610c2e8383610c04565b9150826002028217905092915050565b610c4782610607565b67ffffffffffffffff811115610c6057610c5f610a63565b5b610c6a825461095a565b610c75828285610bb1565b600060209050601f831160018114610ca85760008415610c96578287015190505b610ca08582610c22565b865550610d08565b601f198416610cb686610a92565b60005b82811015610cde57848901518255600182019150602085019450602081019050610cb9565b86831015610cfb5784890151610cf7601f891682610c04565b8355505b6001600288020188555050505b505050505050565b7f4e487b7100000000000000000000000000000000000000000000000000000000600052601160045260246000fd5b6000610d4a82610570565b9150610d5583610570565b9250828203905081811115610d6d57610d6c610d10565b5b92915050565b82818337600083830152505050565b6000610d8e8385610612565b9350610d9b838584610d73565b610da48361064d565b840190509392505050565b60006060820190508181036000830152610dca818789610d82565b90508181036020830152610ddf818587610d82565b9050610dee60408301846106a1565b969550505050505056fea26469706673582212207f55206806caccc83499db5818550d912745c69f7a7b12bb0f14225f3c99002164736f6c63430008180033",
  "linkReferences": {},
  "deployedLinkReferences": {}
}