{
  "_format": "hh-sol-artifact-1",
  "contractName": "WalletStateRegistry",
  "sourceName": "contracts/WalletStateRegistry.sol",
  "abi": [
    {
      "inputs": [],
      "stateMutability": "nonpayable",
      "type": "constructor"
    },
    {
      "anonymous": false,
      "inputs": [
        {
          "indexed": true,
          "internalType": "string",
          "name": "movementId",
          "type": "string"
        },
        {
          "indexed": false,
          "internalType": "string",
          "name": "userRef",
          "type": "string"
        },
        {
          "indexed": false,
          "internalType": "string",
          "name": "previousStateId",
          "type": "string"
        },
        {
          "indexed": false,
          "internalType": "string",
          "name": "newStateId",
          "type": "string"
        },
        {
          "indexed": false,
          "internalType": "bytes32",
          "name": "payloadHash",
          "type": "bytes32"
        },
        {
          "indexed": false,
          "internalType": "bytes32",
          "name": "signatureHash",
          "type": "bytes32"
        },
        {
          "indexed": false,
          "internalType": "uint256",
          "name": "createdAt",
          "type": "uint256"
        }
      ],
      "name": "WalletStateRegistered",
      "type": "event"
    },
    {
      "inputs": [
        {
          "internalType": "string",
          "name": "",
          "type": "string"
        }
      ],
      "name": "movements",
      "outputs": [
        {
          "internalType": "string",
          "name": "userRef",
          "type": "string"
        },
        {
          "internalType": "string",
          "name": "previousStateId",
          "type": "string"
        },
        {
          "internalType": "string",
          "name": "newStateId",
          "type": "string"
        },
        {
          "internalType": "string",
          "name": "movementId",
          "type": "string"
        },
        {
          "internalType": "bytes32",
          "name": "payloadHash",
          "type": "bytes32"
        },
        {
          "internalType": "bytes32",
          "name": "signatureHash",
          "type": "bytes32"
        },
        {
          "internalType": "uint256",
          "name": "createdAt",
          "type": "uint256"
        }
      ],
      "stateMutability": "view",
      "type": "function"
    },
    {
      "inputs": [],
      "name": "owner",
      "outputs": [
        {
          "internalType": "address",
          "name": "",
          "type": "address"
        }
      ],
      "stateMutability": "view",
      "type": "function"
    },
    {
      "inputs": [
        {
          "internalType": "string",
          "name": "userRef",
          "type": "string"
        },
        {
          "internalType": "string",
          "name": "previousStateId",
          "type": "string"
        },
        {
          "internalType": "string",
          "name": "newStateId",
          "type": "string"
        },
        {
          "internalType": "string",
          "name": "movementId",
          "type": "string"
        },
        {
          "internalType": "bytes32",
          "name": "payloadHash",
          "type": "bytes32"
        },
        {
          "internalType": "bytes32",
          "name": "signatureHash",
          "type": "bytes32"
        }
      ],
      "name": "registerWalletMovement",
      "outputs": [],
      "stateMutability": "nonpayable",
      "type": "function"
    },
    {
      "inputs": [],
      "name": "totalMovements",
      "outputs": [
        {
          "internalType": "uint256",
          "name": "",
          "type": "uint256"
        }
      ],
      "stateMutability": "view",
      "type": "function"
    },
    {
      "inputs": [
        {
          "internalType": "string",
          "name": "",
          "type": "string"
        }
      ],
      "name": "usedStateIds",
      "outputs": [
        {
          "internalType": "bool",
          "name": "",
          "type": "bool"
        }
      ],
      "stateMutability": "view",
      "type": "function"
    }
  ],
  "bytecode": "0x608060405234801561001057600080fd5b50336000806101000a81548173ffffffffffffffffffffffffffffffffffffffff021916908373ffffffffffffffffffffffffffffffffffffffff16021790555061142b806100606000396000f3fe608060405234801561001057600080fd5b50600436106100565760003560e01c8062cb7fe11461005b57806366afbf951461008b5780638da5cb5b146100a9578063d2c6699f146100c7578063e7bd026d146100fd575b600080fd5b610075600480360381019061007091906109d8565b610119565b6040516100829190610a3c565b60405180910390f35b61009361014f565b6040516100a09190610a70565b60405180910390f35b6100b1610155565b6040516100be9190610acc565b60405180910390f35b6100e160048036038101906100dc91906109d8565b610179565b6040516100f49796959493929190610b7f565b60405180910390f35b61011760048036038101906101129190610c96565b6103f1565b005b6003818051602081018201805184825260208301602085012081835280955050505050506000915054906101000a900460ff1681565b60015481565b60008054906101000a900473ffffffffffffffffffffffffffffffffffffffff1681565b6002818051602081018201805184825260208301602085012081835280955050505050506000915090508060000180546101b290610dd5565b80601f01602080910402602001604051908101604052809291908181526020018280546101de90610dd5565b801561022b5780601f106102005761010080835404028352916020019161022b565b820191906000526020600020905b81548152906001019060200180831161020e57829003601f168201915b50505050509080600101805461024090610dd5565b80601f016020809104026020016040519081016040528092919081815260200182805461026c90610dd5565b80156102b95780601f1061028e576101008083540402835291602001916102b9565b820191906000526020600020905b81548152906001019060200180831161029c57829003601f168201915b5050505050908060020180546102ce90610dd5565b80601f01602080910402602001604051908101604052809291908181526020018280546102fa90610dd5565b80156103475780601f1061031c57610100808354040283529160200191610347565b820191906000526020600020905b81548152906001019060200180831161032a57829003601f168201915b50505050509080600301805461035c90610dd5565b80601f016020809104026020016040519081016040528092919081815260200182805461038890610dd5565b80156103d55780601f106103aa576101008083540402835291602001916103d5565b820191906000526020600020905b8154815290600101906020018083116103b857829003601f168201915b5050505050908060040154908060050154908060060154905087565b60008054906101000a900473ffffffffffffffffffffffffffffffffffffffff1673ffffffffffffffffffffffffffffffffffffffff163373ffffffffffffffffffffffffffffffffffffffff161461047f576040517f08c379a000000000000000000000000000000000000000000000000000000000815260040161047690610e52565b60405180910390fd5b600084849050116104c5576040517f08c379a00000000000000000000000000000000000000000000000000000000081526004016104bc90610ebe565b60405180910390fd5b6000868690501161050b576040517f08c379a000000000000000000000000000000000000000000000000000000000815260040161050290610f2a565b60405180910390fd5b6003868660405161051d929190610f7a565b908152602001604051809103902060009054906101000a900460ff1615610579576040517f08c379a000000000000000000000000000000000000000000000000000000000815260040161057090610fdf565b60405180910390fd5b60006002858560405161058d929190610f7a565b908152602001604051809103902060060154146105df576040517f08c379a00000000000000000000000000000000000000000000000000000000081526004016105d69061104b565b60405180910390fd5b60006040518060e001604052808c8c8080601f016020809104026020016040519081016040528093929190818152602001838380828437600081840152601f19601f8201169050808301925050505050505081526020018a8a8080601f016020809104026020016040519081016040528093929190818152602001838380828437600081840152601f19601f82011690508083019250505050505050815260200188888080601f016020809104026020016040519081016040528093929190818152602001838380828437600081840152601f19601f82011690508083019250505050505050815260200186868080601f016020809104026020016040519081016040528093929190818152602001838380828437600081840152601f19601f8201169050808301925050505050505081526020018481526020018381526020014281525090508060028686604051610739929190610f7a565b9081526020016040518091039020600082015181600001908161075c9190611217565b5060208201518160010190816107729190611217565b5060408201518160020190816107889190611217565b50606082015181600301908161079e9190611217565b506080820151816004015560a0820151816005015560c082015181600601559050506001600388886040516107d4929190610f7a565b908152602001604051809103902060006101000a81548160ff021916908315150217905550600180600082825461080b9190611318565b925050819055508484604051610822929190610f7a565b60405180910390207fd0e02f9ee3c59448dddf637dd3a0a4f1d409b3115f61381b26a061b2d6aee81e8c8c8c8c8c8c8a8a4260405161086999989796959493929190611379565b60405180910390a25050505050505050505050565b6000604051905090565b600080fd5b600080fd5b600080fd5b600080fd5b6000601f19601f8301169050919050565b7f4e487b7100000000000000000000000000000000000000000000000000000000600052604160045260246000fd5b6108e58261089c565b810181811067ffffffffffffffff82111715610904576109036108ad565b5b80604052505050565b600061091761087e565b905061092382826108dc565b919050565b600067ffffffffffffffff821115610943576109426108ad565b5b61094c8261089c565b9050602081019050919050565b82818337600083830152505050565b600061097b61097684610928565b61090d565b90508281526020810184848401111561099757610996610897565b5b6109a2848285610959565b509392505050565b600082601f8301126109bf576109be610892565b5b81356109cf848260208601610968565b91505092915050565b6000602082840312156109ee576109ed610888565b5b600082013567ffffffffffffffff811115610a0c57610a0b61088d565b5b610a18848285016109aa565b91505092915050565b60008115159050919050565b610a3681610a21565b82525050565b6000602082019050610a516000830184610a2d565b92915050565b6000819050919050565b610a6a81610a57565b82525050565b6000602082019050610a856000830184610a61565b92915050565b600073ffffffffffffffffffffffffffffffffffffffff82169050919050565b6000610ab682610a8b565b9050919050565b610ac681610aab565b82525050565b6000602082019050610ae16000830184610abd565b92915050565b600081519050919050565b600082825260208201905092915050565b60005b83811015610b21578082015181840152602081019050610b06565b60008484015250505050565b6000610b3882610ae7565b610b428185610af2565b9350610b52818560208601610b03565b610b5b8161089c565b840191505092915050565b6000819050919050565b610b7981610b66565b82525050565b600060e0820190508181036000830152610b99818a610b2d565b90508181036020830152610bad8189610b2d565b90508181036040830152610bc18188610b2d565b90508181036060830152610bd58187610b2d565b9050610be46080830186610b70565b610bf160a0830185610b70565b610bfe60c0830184610a61565b98975050505050505050565b600080fd5b600080fd5b60008083601f840112610c2a57610c29610892565b5b8235905067ffffffffffffffff811115610c4757610c46610c0a565b5b602083019150836001820283011115610c6357610c62610c0f565b5b9250929050565b610c7381610b66565b8114610c7e57600080fd5b50565b600081359050610c9081610c6a565b92915050565b60008060008060008060008060008060c08b8d031215610cb957610cb8610888565b5b60008b013567ffffffffffffffff811115610cd757610cd661088d565b5b610ce38d828e01610c14565b9a509a505060208b013567ffffffffffffffff811115610d0657610d0561088d565b5b610d128d828e01610c14565b985098505060408b013567ffffffffffffffff811115610d3557610d3461088d565b5b610d418d828e01610c14565b965096505060608b013567ffffffffffffffff811115610d6457610d6361088d565b5b610d708d828e01610c14565b94509450506080610d838d828e01610c81565b92505060a0610d948d828e01610c81565b9150509295989b9194979a5092959850565b7f4e487b7100000000000000000000000000000000000000000000000000000000600052602260045260246000fd5b60006002820490506001821680610ded57607f821691505b602082108103610e0057610dff610da6565b5b50919050565b7f4f4e4c595f4f574e455200000000000000000000000000000000000000000000600082015250565b6000610e3c600a83610af2565b9150610e4782610e06565b602082019050919050565b60006020820190508181036000830152610e6b81610e2f565b9050919050565b7f4d4f56454d454e545f5245515549524544000000000000000000000000000000600082015250565b6000610ea8601183610af2565b9150610eb382610e72565b602082019050919050565b60006020820190508181036000830152610ed781610e9b565b9050919050565b7f53544154455f5245515549524544000000000000000000000000000000000000600082015250565b6000610f14600e83610af2565b9150610f1f82610ede565b602082019050919050565b60006020820190508181036000830152610f4381610f07565b9050919050565b600081905092915050565b6000610f618385610f4a565b9350610f6e838584610959565b82840190509392505050565b6000610f87828486610f55565b91508190509392505050565b7f53544154455f414c52454144595f555345440000000000000000000000000000600082015250565b6000610fc9601283610af2565b9150610fd482610f93565b602082019050919050565b60006020820190508181036000830152610ff881610fbc565b9050919050565b7f4d4f56454d454e545f4558495354530000000000000000000000000000000000600082015250565b6000611035600f83610af2565b915061104082610fff565b602082019050919050565b6000602082019050818103600083015261106481611028565b9050919050565b60008190508160005260206000209050919050565b60006020601f8301049050919050565b600082821b905092915050565b6000600883026110cd7fffffffffffffffffffffffffffffffffffffffffffffffffffffffffffffffff82611090565b6110d78683611090565b95508019841693508086168417925050509392505050565b6000819050919050565b600061111461110f61110a84610a57565b6110ef565b610a57565b9050919050565b6000819050919050565b61112e836110f9565b61114261113a8261111b565b84845461109d565b825550505050565b600090565b61115761114a565b611162818484611125565b505050565b5b818110156111865761117b60008261114f565b600181019050611168565b5050565b601f8211156111cb5761119c8161106b565b6111a584611080565b810160208510156111b4578190505b6111c86111c085611080565b830182611167565b50505b505050565b600082821c905092915050565b60006111ee600019846008026111d0565b1980831691505092915050565b600061120783836111dd565b9150826002028217905092915050565b61122082610ae7565b67ffffffffffffffff811115611239576112386108ad565b5b6112438254610dd5565b61124e82828561118a565b600060209050601f831160018114611281576000841561126f578287015190505b61127985826111fb565b8655506112e1565b601f19841661128f8661106b565b60005b828110156112b757848901518255600182019150602085019450602081019050611292565b868310156112d457848901516112d0601f8916826111dd565b8355505b6001600288020188555050505b505050505050565b7f4e487b7100000000000000000000000000000000000000000000000000000000600052601160045260246000fd5b600061132382610a57565b915061132e83610a57565b9250828201905080821115611346576113456112e9565b5b92915050565b60006113588385610af2565b9350611365838584610959565b61136e8361089c565b840190509392505050565b600060c0820190508181036000830152611394818b8d61134c565b905081810360208301526113a981898b61134c565b905081810360408301526113be81878961134c565b90506113cd6060830186610b70565b6113da6080830185610b70565b6113e760a0830184610a61565b9a995050505050505050505056fea2646970667358221220a0cb01c48e32a4a9b1961c4fc7b046ae7f18eb3b4212f7b7a7e0d9a010aa0ffc64736f6c63430008180033",
  "linkReferences": {},
  "deployedLinkReferences": {}
}