{
  "_format": "hh-sol-artifact-1",
  "contractName": "LocalFirstWalletRegistry",
  "sourceName": "contracts/LocalFirstWalletRegistry.sol",
  "abi": [
    {
      "anonymous": false,
      "inputs": [
        {
          "indexed": true,
          "internalType": "bytes32",
          "name": "userHash",
          "type": "bytes32"
        },
        {
          "indexed": true,
          "internalType": "bytes32",
          "name": "movementId",
          "type": "bytes32"
        },
        {
          "indexed": false,
          "internalType": "bytes32",
          "name": "previousWalletStateId",
          "type": "bytes32"
        },
        {
          "indexed": false,
          "internalType": "bytes32",
          "name": "newWalletStateId",
          "type": "bytes32"
        },
        {
          "indexed": false,
          "internalType": "bytes32",
          "name": "payloadHash",
          "type": "bytes32"
        },
        {
          "indexed": false,
          "internalType": "bytes32",
          "name": "signatureHash",
          "type": "bytes32"
        },
        {
          "indexed": false,
          "internalType": "uint256",
          "name": "timestamp",
          "type": "uint256"
        }
      ],
      "name": "LocalWalletMovementRegistered",
      "type": "event"
    },
    {
      "inputs": [
        {
          "internalType": "bytes32",
          "name": "",
          "type": "bytes32"
        }
      ],
      "name": "latestWalletState",
      "outputs": [
        {
          "internalType": "bytes32",
          "name": "",
          "type": "bytes32"
        }
      ],
      "stateMutability": "view",
      "type": "function"
    },
    {
      "inputs": [
        {
          "internalType": "bytes32",
          "name": "",
          "type": "bytes32"
        }
      ],
      "name": "movementExists",
      "outputs": [
        {
          "internalType": "bool",
          "name": "",
          "type": "bool"
        }
      ],
      "stateMutability": "view",
      "type": "function"
    },
    {
      "inputs": [
        {
          "internalType": "bytes32",
          "name": "userHash",
          "type": "bytes32"
        },
        {
          "internalType": "bytes32",
          "name": "movementId",
          "type": "bytes32"
        },
        {
          "internalType": "bytes32",
          "name": "previousWalletStateId",
          "type": "bytes32"
        },
        {
          "internalType": "bytes32",
          "name": "newWalletStateId",
          "type": "bytes32"
        },
        {
          "internalType": "bytes32",
          "name": "payloadHash",
          "type": "bytes32"
        },
        {
          "internalType": "bytes32",
          "name": "signatureHash",
          "type": "bytes32"
        }
      ],
      "name": "registerMovement",
      "outputs": [],
      "stateMutability": "nonpayable",
      "type": "function"
    }
  ],
  "bytecode": "0x608060405234801561001057600080fd5b5061052b806100206000396000f3fe608060405234801561001057600080fd5b50600436106100415760003560e01c8063170106661461004657806383ce7e9014610062578063b90e213214610092575b600080fd5b610060600480360381019061005b9190610286565b6100c2565b005b61007c60048036038101906100779190610313565b610213565b604051610089919061035b565b60405180910390f35b6100ac60048036038101906100a79190610313565b610233565b6040516100b99190610385565b60405180910390f35b6001600086815260200190815260200160002060009054906101000a900460ff1615610123576040517f08c379a000000000000000000000000000000000000000000000000000000000815260040161011a906103fd565b60405180910390fd5b60008060008881526020019081526020016000205490506000801b811461018757848114610186576040517f08c379a000000000000000000000000000000000000000000000000000000000815260040161017d90610469565b60405180910390fd5b5b600180600088815260200190815260200160002060006101000a81548160ff021916908315150217905550836000808981526020019081526020016000208190555085877f21fd527b7668ae7038425aec591cc8c5859e9ebbf85c3e5f823ea76a3d232cf487878787426040516102029594939291906104a2565b60405180910390a350505050505050565b60016020528060005260406000206000915054906101000a900460ff1681565b60006020528060005260406000206000915090505481565b600080fd5b6000819050919050565b61026381610250565b811461026e57600080fd5b50565b6000813590506102808161025a565b92915050565b60008060008060008060c087890312156102a3576102a261024b565b5b60006102b189828a01610271565b96505060206102c289828a01610271565b95505060406102d389828a01610271565b94505060606102e489828a01610271565b93505060806102f589828a01610271565b92505060a061030689828a01610271565b9150509295509295509295565b6000602082840312156103295761032861024b565b5b600061033784828501610271565b91505092915050565b60008115159050919050565b61035581610340565b82525050565b6000602082019050610370600083018461034c565b92915050565b61037f81610250565b82525050565b600060208201905061039a6000830184610376565b92915050565b600082825260208201905092915050565b7f6d6f76656d656e7420616c726561647920726567697374657265640000000000600082015250565b60006103e7601b836103a0565b91506103f2826103b1565b602082019050919050565b60006020820190508181036000830152610416816103da565b9050919050565b7f696e76616c69642070726576696f75732077616c6c6574207374617465000000600082015250565b6000610453601d836103a0565b915061045e8261041d565b602082019050919050565b6000602082019050818103600083015261048281610446565b9050919050565b6000819050919050565b61049c81610489565b82525050565b600060a0820190506104b76000830188610376565b6104c46020830187610376565b6104d16040830186610376565b6104de6060830185610376565b6104eb6080830184610493565b969550505050505056fea2646970667358221220f6d9f948f32b25de5adec2823b2cb01da6df6619315c93ba0425d04d953bc8df64736f6c63430008180033",
  "linkReferences": {},
  "deployedLinkReferences": {}
}